{
  "contractName": "BiddingMap",
  "abi": [
    {
      "anonymous": false,
      "inputs": [
        {
          "indexed": false,
          "internalType": "address",
          "name": "student",
          "type": "address"
        },
        {
          "indexed": false,
          "internalType": "uint256",
          "name": "mod",
          "type": "uint256"
        },
        {
          "indexed": false,
          "internalType": "uint256",
          "name": "amt",
          "type": "uint256"
        }
      ],
      "name": "bid",
      "type": "event"
    },
    {
      "anonymous": false,
      "inputs": [
        {
          "indexed": false,
          "internalType": "address",
          "name": "student",
          "type": "address"
        },
        {
          "indexed": false,
          "internalType": "uint256",
          "name": "mod",
          "type": "uint256"
        }
      ],
      "name": "unbid",
      "type": "event"
    },
    {
      "inputs": [
        {
          "internalType": "address",
          "name": "student",
          "type": "address"
        },
        {
          "internalType": "uint256",
          "name": "mod",
          "type": "uint256"
        },
        {
          "internalType": "uint256",
          "name": "amt",
          "type": "uint256"
        }
      ],
      "name": "bidMod",
      "outputs": [],
      "stateMutability": "nonpayable",
      "type": "function"
    },
    {
      "inputs": [
        {
          "internalType": "address",
          "name": "student",
          "type": "address"
        },
        {
          "internalType": "uint256",
          "name": "mod",
          "type": "uint256"
        }
      ],
      "name": "unbidMod",
      "outputs": [],
      "stateMutability": "nonpayable",
      "type": "function"
    },
    {
      "inputs": [
        {
          "internalType": "address",
          "name": "student",
          "type": "address"
        },
        {
          "internalType": "uint256",
          "name": "mod",
          "type": "uint256"
        }
      ],
      "name": "find_mod",
      "outputs": [
        {
          "internalType": "uint256",
          "name": "",
          "type": "uint256"
        }
      ],
      "stateMutability": "view",
      "type": "function"
    },
    {
      "inputs": [
        {
          "internalType": "address",
          "name": "student",
          "type": "address"
        },
        {
          "internalType": "uint256",
          "name": "i",
          "type": "uint256"
        }
      ],
      "name": "removeModByIndex",
      "outputs": [],
      "stateMutability": "payable",
      "type": "function"
    },
    {
      "inputs": [
        {
          "internalType": "uint256",
          "name": "mod",
          "type": "uint256"
        },
        {
          "internalType": "uint256",
          "name": "i",
          "type": "uint256"
        }
      ],
      "name": "removeStudentByIndex",
      "outputs": [],
      "stateMutability": "payable",
      "type": "function"
    },
    {
      "inputs": [
        {
          "internalType": "address",
          "name": "student",
          "type": "address"
        },
        {
          "internalType": "uint256",
          "name": "mod",
          "type": "uint256"
        }
      ],
      "name": "getStudentBid",
      "outputs": [
        {
          "internalType": "uint256",
          "name": "",
          "type": "uint256"
        }
      ],
      "stateMutability": "view",
      "type": "function"
    },
    {
      "inputs": [
        {
          "internalType": "address",
          "name": "student",
          "type": "address"
        }
      ],
      "name": "getStudentMods",
      "outputs": [
        {
          "internalType": "uint256[]",
          "name": "",
          "type": "uint256[]"
        }
      ],
      "stateMutability": "view",
      "type": "function"
    },
    {
      "inputs": [
        {
          "internalType": "uint256",
          "name": "mod",
          "type": "uint256"
        }
      ],
      "name": "getModStudents",
      "outputs": [
        {
          "internalType": "address[]",
          "name": "",
          "type": "address[]"
        }
      ],
      "stateMutability": "view",
      "type": "function"
    }
  ],
  "bytecode": "0x608060405233600360006101000a81548173ffffffffffffffffffffffffffffffffffffffff021916908373ffffffffffffffffffffffffffffffffffffffff16021790555034801561005157600080fd5b50610db4806100616000396000f3fe60806040526004361061007b5760003560e01c8063ba9c88c41161004e578063ba9c88c41461011e578063c0fe449414610147578063f659d58b14610184578063fcbac638146101c15761007b565b80631f179bb01461008057806322fbffbf1461009c5780636b5f0b1c146100c55780638dfcb07714610102575b600080fd5b61009a60048036038101906100959190610a7f565b6101fe565b005b3480156100a857600080fd5b506100c360048036038101906100be9190610a07565b610334565b005b3480156100d157600080fd5b506100ec60048036038101906100e791906109cb565b6104a2565b6040516100f99190610c87565b60405180910390f35b61011c600480360381019061011791906109cb565b6104fc565b005b34801561012a57600080fd5b50610145600480360381019061014091906109cb565b610668565b005b34801561015357600080fd5b5061016e60048036038101906101699190610a56565b61072c565b60405161017b9190610c43565b60405180910390f35b34801561019057600080fd5b506101ab60048036038101906101a691906109cb565b6107cd565b6040516101b89190610c87565b60405180910390f35b3480156101cd57600080fd5b506101e860048036038101906101e391906109a2565b610847565b6040516101f59190610c65565b60405180910390f35b5b60016002600084815260200190815260200160002080549050038110156102df5760026000838152602001908152602001600020600182018154811061024157fe5b9060005260206000200160009054906101000a900473ffffffffffffffffffffffffffffffffffffffff1660026000848152602001908152602001600020828154811061028a57fe5b9060005260206000200160006101000a81548173ffffffffffffffffffffffffffffffffffffffff021916908373ffffffffffffffffffffffffffffffffffffffff16021790555080806001019150506101ff565b600260008381526020019081526020016000208054806102fb57fe5b6001900381819060005260206000200160006101000a81549073ffffffffffffffffffffffffffffffffffffffff021916905590555050565b806000808573ffffffffffffffffffffffffffffffffffffffff1673ffffffffffffffffffffffffffffffffffffffff168152602001908152602001600020600084815260200190815260200160002081905550600160008473ffffffffffffffffffffffffffffffffffffffff1673ffffffffffffffffffffffffffffffffffffffff16815260200190815260200160002082908060018154018082558091505060019003906000526020600020016000909190919091505560026000838152602001908152602001600020839080600181540180825580915050600190039060005260206000200160009091909190916101000a81548173ffffffffffffffffffffffffffffffffffffffff021916908373ffffffffffffffffffffffffffffffffffffffff1602179055507f0f41ba4bfe080f9db775c140650a1c200bd9328bb3af441adb3bce87abc306fc83838360405161049593929190610c0c565b60405180910390a1505050565b60008060008473ffffffffffffffffffffffffffffffffffffffff1673ffffffffffffffffffffffffffffffffffffffff168152602001908152602001600020600083815260200190815260200160002054905092915050565b5b60018060008473ffffffffffffffffffffffffffffffffffffffff1673ffffffffffffffffffffffffffffffffffffffff168152602001908152602001600020805490500381101561060657600160008373ffffffffffffffffffffffffffffffffffffffff1673ffffffffffffffffffffffffffffffffffffffff168152602001908152602001600020600182018154811061059657fe5b9060005260206000200154600160008473ffffffffffffffffffffffffffffffffffffffff1673ffffffffffffffffffffffffffffffffffffffff16815260200190815260200160002082815481106105eb57fe5b906000526020600020018190555080806001019150506104fd565b600160008373ffffffffffffffffffffffffffffffffffffffff1673ffffffffffffffffffffffffffffffffffffffff16815260200190815260200160002080548061064e57fe5b600190038181906000526020600020016000905590555050565b600061067483836107cd565b9050600061068284846108de565b905061068e84836104fc565b61069883826101fe565b60008060008673ffffffffffffffffffffffffffffffffffffffff1673ffffffffffffffffffffffffffffffffffffffff1681526020019081526020016000206000858152602001908152602001600020819055507f96af15db637c1729efcbdaa2908610876b015225027bcff2b13e32a83bf8bc8e848460405161071e929190610be3565b60405180910390a150505050565b6060600260008381526020019081526020016000208054806020026020016040519081016040528092919081815260200182805480156107c157602002820191906000526020600020905b8160009054906101000a900473ffffffffffffffffffffffffffffffffffffffff1673ffffffffffffffffffffffffffffffffffffffff1681526020019060010190808311610777575b50505050509050919050565b600080600090505b82600160008673ffffffffffffffffffffffffffffffffffffffff1673ffffffffffffffffffffffffffffffffffffffff168152602001908152602001600020828154811061082057fe5b90600052602060002001541461083d5780806001019150506107d5565b8091505092915050565b6060600160008373ffffffffffffffffffffffffffffffffffffffff1673ffffffffffffffffffffffffffffffffffffffff1681526020019081526020016000208054806020026020016040519081016040528092919081815260200182805480156108d257602002820191906000526020600020905b8154815260200190600101908083116108be575b50505050509050919050565b600080600090505b8373ffffffffffffffffffffffffffffffffffffffff1660026000858152602001908152602001600020828154811061091b57fe5b9060005260206000200160009054906101000a900473ffffffffffffffffffffffffffffffffffffffff1673ffffffffffffffffffffffffffffffffffffffff161461096e5780806001019150506108e6565b8091505092915050565b60008135905061098781610d50565b92915050565b60008135905061099c81610d67565b92915050565b6000602082840312156109b457600080fd5b60006109c284828501610978565b91505092915050565b600080604083850312156109de57600080fd5b60006109ec85828601610978565b92505060206109fd8582860161098d565b9150509250929050565b600080600060608486031215610a1c57600080fd5b6000610a2a86828701610978565b9350506020610a3b8682870161098d565b9250506040610a4c8682870161098d565b9150509250925092565b600060208284031215610a6857600080fd5b6000610a768482850161098d565b91505092915050565b60008060408385031215610a9257600080fd5b6000610aa08582860161098d565b9250506020610ab18582860161098d565b9150509250929050565b6000610ac78383610aeb565b60208301905092915050565b6000610adf8383610bc5565b60208301905092915050565b610af481610d14565b82525050565b610b0381610d14565b82525050565b6000610b1482610cc2565b610b1e8185610cf2565b9350610b2983610ca2565b8060005b83811015610b5a578151610b418882610abb565b9750610b4c83610cd8565b925050600181019050610b2d565b5085935050505092915050565b6000610b7282610ccd565b610b7c8185610d03565b9350610b8783610cb2565b8060005b83811015610bb8578151610b9f8882610ad3565b9750610baa83610ce5565b925050600181019050610b8b565b5085935050505092915050565b610bce81610d46565b82525050565b610bdd81610d46565b82525050565b6000604082019050610bf86000830185610afa565b610c056020830184610bd4565b9392505050565b6000606082019050610c216000830186610afa565b610c2e6020830185610bd4565b610c3b6040830184610bd4565b949350505050565b60006020820190508181036000830152610c5d8184610b09565b905092915050565b60006020820190508181036000830152610c7f8184610b67565b905092915050565b6000602082019050610c9c6000830184610bd4565b92915050565b6000819050602082019050919050565b6000819050602082019050919050565b600081519050919050565b600081519050919050565b6000602082019050919050565b6000602082019050919050565b600082825260208201905092915050565b600082825260208201905092915050565b6000610d1f82610d26565b9050919050565b600073ffffffffffffffffffffffffffffffffffffffff82169050919050565b6000819050919050565b610d5981610d14565b8114610d6457600080fd5b50565b610d7081610d46565b8114610d7b57600080fd5b5056fea2646970667358221220fe50d5509649d21198526cbbae30d7101f0820dfd702592bbb1a51dc7d9e24d864736f6c63430006040033",
  "source": "pragma solidity ^0.6.0;\r\npragma experimental ABIEncoderV2;\r\n\r\ncontract BiddingMap {\r\n    mapping(address => mapping(uint256 => uint256)) module_points;\r\n    mapping(address => uint256[]) student_to_mod;\r\n    mapping(uint256 => address[]) mod_to_student;\r\n    address owner = msg.sender;\r\n    event  bid(address student, uint256 mod, uint256 amt);\r\n    event unbid(address student, uint256 mod);\r\n\r\n    // --------------------------- Functions for bidding mod ---------------------------------------\r\n    function bidMod(address student, uint256 mod, uint256 amt) public {\r\n        module_points[student][mod] = amt;\r\n        student_to_mod[student].push(mod);\r\n        mod_to_student[mod].push(student);\r\n        emit bid(student,mod , amt);\r\n    }\r\n\r\n    // --------------------------- Functions for unbidding mod ---------------------------------------\r\n    function unbidMod(address student, uint256 mod) public {\r\n        uint256 i = find_mod(student, mod);\r\n        uint256 j = find_student(student, mod);\r\n        removeModByIndex(student, i);\r\n        removeStudentByIndex(mod, j);\r\n        module_points[student][mod] = 0;\r\n        emit unbid(student,mod);\r\n    }\r\n\r\n    // Find mod index for the student in student_to_mod mapping\r\n    function find_mod(address student, uint256 mod) public view returns(uint256) {\r\n        uint i = 0;\r\n        while (student_to_mod[student][i] != mod) {\r\n            i++;\r\n        }\r\n        return i;\r\n    }\r\n\r\n    // Find studen index for the mod in mod_to_student mapping\r\n    function find_student(address student, uint256 mod) internal view returns(uint256) {\r\n        uint i = 0;\r\n        while (mod_to_student[mod][i] != student) {\r\n            i++;\r\n        }\r\n        return i;\r\n    }\r\n\r\n    // Remove mod for the student \r\n    function removeModByIndex(address student, uint256 i) public payable {\r\n        while (i<student_to_mod[student].length-1) {\r\n            student_to_mod[student][i] = student_to_mod[student][i+1];\r\n            i++;\r\n        }\r\n        student_to_mod[student].pop();\r\n    }\r\n\r\n    // Remove student for the mod\r\n    function removeStudentByIndex(uint256 mod, uint256 i) public payable {\r\n        while (i<mod_to_student[mod].length-1) {\r\n            mod_to_student[mod][i] = mod_to_student[mod][i+1];\r\n            i++;\r\n        }\r\n        mod_to_student[mod].pop();\r\n    }\r\n\r\n    // --------------------------- Getter functions ---------------------------------------\r\n    function getStudentBid(address student, uint256 mod) public view returns(uint256) {\r\n        return module_points[student][mod];\r\n    }\r\n\r\n    function getStudentMods(address student) public view returns(uint256[] memory) {\r\n        return student_to_mod[student];\r\n    }\r\n\r\n    function getModStudents(uint256 mod) public view returns(address[] memory) {\r\n        return mod_to_student[mod];\r\n    }\r\n}",
  "sourcePath": "C:\\Users\\kenne\\Desktop\\BetterModReg\\backend\\contracts\\BiddingMap.sol",
  "compiler": {
    "name": "solc",
    "version": "0.6.4+commit.1dca32f3.Emscripten.clang"
  },
  "schemaVersion": "3.4.4",
  "updatedAt": "2022-04-13T12:55:22.915Z",
  "devdoc": {
    "methods": {}
  },
  "userdoc": {
    "methods": {}
  }
}