{
  "contractName": "BiddingMap",
  "abi": [
    {
      "anonymous": false,
      "inputs": [
        {
          "indexed": false,
          "internalType": "address",
          "name": "student",
          "type": "address"
        },
        {
          "indexed": false,
          "internalType": "uint256",
          "name": "mod",
          "type": "uint256"
        },
        {
          "indexed": false,
          "internalType": "uint256",
          "name": "amt",
          "type": "uint256"
        }
      ],
      "name": "bid",
      "type": "event"
    },
    {
      "anonymous": false,
      "inputs": [
        {
          "indexed": false,
          "internalType": "address",
          "name": "student",
          "type": "address"
        },
        {
          "indexed": false,
          "internalType": "uint256",
          "name": "mod",
          "type": "uint256"
        }
      ],
      "name": "unbid",
      "type": "event"
    },
    {
      "inputs": [
        {
          "internalType": "address",
          "name": "student",
          "type": "address"
        },
        {
          "internalType": "uint256",
          "name": "mod",
          "type": "uint256"
        },
        {
          "internalType": "uint256",
          "name": "amt",
          "type": "uint256"
        }
      ],
      "name": "bidMod",
      "outputs": [],
      "stateMutability": "nonpayable",
      "type": "function"
    },
    {
      "inputs": [
        {
          "internalType": "address",
          "name": "student",
          "type": "address"
        },
        {
          "internalType": "uint256",
          "name": "mod",
          "type": "uint256"
        }
      ],
      "name": "unbidMod",
      "outputs": [],
      "stateMutability": "nonpayable",
      "type": "function"
    },
    {
      "inputs": [
        {
          "internalType": "address",
          "name": "student",
          "type": "address"
        },
        {
          "internalType": "uint256",
          "name": "i",
          "type": "uint256"
        }
      ],
      "name": "removeModByIndex",
      "outputs": [],
      "stateMutability": "payable",
      "type": "function",
      "payable": true
    },
    {
      "inputs": [
        {
          "internalType": "uint256",
          "name": "mod",
          "type": "uint256"
        },
        {
          "internalType": "uint256",
          "name": "i",
          "type": "uint256"
        }
      ],
      "name": "removeStudentByIndex",
      "outputs": [],
      "stateMutability": "payable",
      "type": "function",
      "payable": true
    },
    {
      "inputs": [
        {
          "internalType": "address",
          "name": "student",
          "type": "address"
        },
        {
          "internalType": "uint256",
          "name": "mod",
          "type": "uint256"
        }
      ],
      "name": "getStudentBid",
      "outputs": [
        {
          "internalType": "uint256",
          "name": "",
          "type": "uint256"
        }
      ],
      "stateMutability": "view",
      "type": "function",
      "constant": true
    },
    {
      "inputs": [
        {
          "internalType": "address",
          "name": "student",
          "type": "address"
        }
      ],
      "name": "getStudentMods",
      "outputs": [
        {
          "internalType": "uint256[]",
          "name": "",
          "type": "uint256[]"
        }
      ],
      "stateMutability": "view",
      "type": "function",
      "constant": true
    },
    {
      "inputs": [
        {
          "internalType": "uint256",
          "name": "mod",
          "type": "uint256"
        }
      ],
      "name": "getModStudents",
      "outputs": [
        {
          "internalType": "address[]",
          "name": "",
          "type": "address[]"
        }
      ],
      "stateMutability": "view",
      "type": "function",
      "constant": true
    }
  ],
  "bytecode": "0x608060405233600360006101000a81548173ffffffffffffffffffffffffffffffffffffffff021916908373ffffffffffffffffffffffffffffffffffffffff16021790555034801561005157600080fd5b50610d6c806100616000396000f3fe6080604052600436106100705760003560e01c80638dfcb0771161004e5780638dfcb077146100f7578063ba9c88c414610113578063c0fe44941461013c578063fcbac6381461017957610070565b80631f179bb01461007557806322fbffbf146100915780636b5f0b1c146100ba575b600080fd5b61008f600480360381019061008a9190610a37565b6101b6565b005b34801561009d57600080fd5b506100b860048036038101906100b391906109bf565b6102ec565b005b3480156100c657600080fd5b506100e160048036038101906100dc9190610983565b61045a565b6040516100ee9190610c3f565b60405180910390f35b610111600480360381019061010c9190610983565b6104b4565b005b34801561011f57600080fd5b5061013a60048036038101906101359190610983565b610620565b005b34801561014857600080fd5b50610163600480360381019061015e9190610a0e565b6106e4565b6040516101709190610bfb565b60405180910390f35b34801561018557600080fd5b506101a0600480360381019061019b919061095a565b610785565b6040516101ad9190610c1d565b60405180910390f35b5b6001600260008481526020019081526020016000208054905003811015610297576002600083815260200190815260200160002060018201815481106101f957fe5b9060005260206000200160009054906101000a900473ffffffffffffffffffffffffffffffffffffffff1660026000848152602001908152602001600020828154811061024257fe5b9060005260206000200160006101000a81548173ffffffffffffffffffffffffffffffffffffffff021916908373ffffffffffffffffffffffffffffffffffffffff16021790555080806001019150506101b7565b600260008381526020019081526020016000208054806102b357fe5b6001900381819060005260206000200160006101000a81549073ffffffffffffffffffffffffffffffffffffffff021916905590555050565b806000808573ffffffffffffffffffffffffffffffffffffffff1673ffffffffffffffffffffffffffffffffffffffff168152602001908152602001600020600084815260200190815260200160002081905550600160008473ffffffffffffffffffffffffffffffffffffffff1673ffffffffffffffffffffffffffffffffffffffff16815260200190815260200160002082908060018154018082558091505060019003906000526020600020016000909190919091505560026000838152602001908152602001600020839080600181540180825580915050600190039060005260206000200160009091909190916101000a81548173ffffffffffffffffffffffffffffffffffffffff021916908373ffffffffffffffffffffffffffffffffffffffff1602179055507f0f41ba4bfe080f9db775c140650a1c200bd9328bb3af441adb3bce87abc306fc83838360405161044d93929190610bc4565b60405180910390a1505050565b60008060008473ffffffffffffffffffffffffffffffffffffffff1673ffffffffffffffffffffffffffffffffffffffff168152602001908152602001600020600083815260200190815260200160002054905092915050565b5b60018060008473ffffffffffffffffffffffffffffffffffffffff1673ffffffffffffffffffffffffffffffffffffffff16815260200190815260200160002080549050038110156105be57600160008373ffffffffffffffffffffffffffffffffffffffff1673ffffffffffffffffffffffffffffffffffffffff168152602001908152602001600020600182018154811061054e57fe5b9060005260206000200154600160008473ffffffffffffffffffffffffffffffffffffffff1673ffffffffffffffffffffffffffffffffffffffff16815260200190815260200160002082815481106105a357fe5b906000526020600020018190555080806001019150506104b5565b600160008373ffffffffffffffffffffffffffffffffffffffff1673ffffffffffffffffffffffffffffffffffffffff16815260200190815260200160002080548061060657fe5b600190038181906000526020600020016000905590555050565b600061062c838361081c565b9050600061063a8484610896565b905061064684836104b4565b61065083826101b6565b60008060008673ffffffffffffffffffffffffffffffffffffffff1673ffffffffffffffffffffffffffffffffffffffff1681526020019081526020016000206000858152602001908152602001600020819055507f96af15db637c1729efcbdaa2908610876b015225027bcff2b13e32a83bf8bc8e84846040516106d6929190610b9b565b60405180910390a150505050565b60606002600083815260200190815260200160002080548060200260200160405190810160405280929190818152602001828054801561077957602002820191906000526020600020905b8160009054906101000a900473ffffffffffffffffffffffffffffffffffffffff1673ffffffffffffffffffffffffffffffffffffffff168152602001906001019080831161072f575b50505050509050919050565b6060600160008373ffffffffffffffffffffffffffffffffffffffff1673ffffffffffffffffffffffffffffffffffffffff16815260200190815260200160002080548060200260200160405190810160405280929190818152602001828054801561081057602002820191906000526020600020905b8154815260200190600101908083116107fc575b50505050509050919050565b600080600090505b82600160008673ffffffffffffffffffffffffffffffffffffffff1673ffffffffffffffffffffffffffffffffffffffff168152602001908152602001600020828154811061086f57fe5b90600052602060002001541461088c578080600101915050610824565b8091505092915050565b600080600090505b8373ffffffffffffffffffffffffffffffffffffffff166002600085815260200190815260200160002082815481106108d357fe5b9060005260206000200160009054906101000a900473ffffffffffffffffffffffffffffffffffffffff1673ffffffffffffffffffffffffffffffffffffffff161461092657808060010191505061089e565b8091505092915050565b60008135905061093f81610d08565b92915050565b60008135905061095481610d1f565b92915050565b60006020828403121561096c57600080fd5b600061097a84828501610930565b91505092915050565b6000806040838503121561099657600080fd5b60006109a485828601610930565b92505060206109b585828601610945565b9150509250929050565b6000806000606084860312156109d457600080fd5b60006109e286828701610930565b93505060206109f386828701610945565b9250506040610a0486828701610945565b9150509250925092565b600060208284031215610a2057600080fd5b6000610a2e84828501610945565b91505092915050565b60008060408385031215610a4a57600080fd5b6000610a5885828601610945565b9250506020610a6985828601610945565b9150509250929050565b6000610a7f8383610aa3565b60208301905092915050565b6000610a978383610b7d565b60208301905092915050565b610aac81610ccc565b82525050565b610abb81610ccc565b82525050565b6000610acc82610c7a565b610ad68185610caa565b9350610ae183610c5a565b8060005b83811015610b12578151610af98882610a73565b9750610b0483610c90565b925050600181019050610ae5565b5085935050505092915050565b6000610b2a82610c85565b610b348185610cbb565b9350610b3f83610c6a565b8060005b83811015610b70578151610b578882610a8b565b9750610b6283610c9d565b925050600181019050610b43565b5085935050505092915050565b610b8681610cfe565b82525050565b610b9581610cfe565b82525050565b6000604082019050610bb06000830185610ab2565b610bbd6020830184610b8c565b9392505050565b6000606082019050610bd96000830186610ab2565b610be66020830185610b8c565b610bf36040830184610b8c565b949350505050565b60006020820190508181036000830152610c158184610ac1565b905092915050565b60006020820190508181036000830152610c378184610b1f565b905092915050565b6000602082019050610c546000830184610b8c565b92915050565b6000819050602082019050919050565b6000819050602082019050919050565b600081519050919050565b600081519050919050565b6000602082019050919050565b6000602082019050919050565b600082825260208201905092915050565b600082825260208201905092915050565b6000610cd782610cde565b9050919050565b600073ffffffffffffffffffffffffffffffffffffffff82169050919050565b6000819050919050565b610d1181610ccc565b8114610d1c57600080fd5b50565b610d2881610cfe565b8114610d3357600080fd5b5056fea264697066735822122052faba21fb97c2a57115ee864e650ca49833d4d18db1966d09823a700b5c9bba64736f6c63430006040033",
  "source": "pragma solidity ^0.6.0;\r\npragma experimental ABIEncoderV2;\r\n\r\ncontract BiddingMap {\r\n    mapping(address => mapping(uint256 => uint256)) module_points;\r\n    mapping(address => uint256[]) student_to_mod;\r\n    mapping(uint256 => address[]) mod_to_student;\r\n    address owner = msg.sender;\r\n    event  bid(address student, uint256 mod, uint256 amt);\r\n    event unbid(address student, uint256 mod);\r\n\r\n    // --------------------------- Functions for bidding mod ---------------------------------------\r\n    function bidMod(address student, uint256 mod, uint256 amt) public {\r\n        module_points[student][mod] = amt;\r\n        student_to_mod[student].push(mod);\r\n        mod_to_student[mod].push(student);\r\n        emit bid(student,mod , amt);\r\n    }\r\n\r\n    // --------------------------- Functions for unbidding mod ---------------------------------------\r\n    function unbidMod(address student, uint256 mod) public {\r\n        uint256 i = find_mod(student, mod);\r\n        uint256 j = find_student(student, mod);\r\n        removeModByIndex(student, i);\r\n        removeStudentByIndex(mod, j);\r\n        module_points[student][mod] = 0;\r\n        emit unbid(student,mod);\r\n    }\r\n\r\n    // Find mod index for the student in student_to_mod mapping\r\n    function find_mod(address student, uint256 mod) internal view returns(uint256) {\r\n        uint i = 0;\r\n        while (student_to_mod[student][i] != mod) {\r\n            i++;\r\n        }\r\n        return i;\r\n    }\r\n\r\n    // Find studen index for the mod in mod_to_student mapping\r\n    function find_student(address student, uint256 mod) internal view returns(uint256) {\r\n        uint i = 0;\r\n        while (mod_to_student[mod][i] != student) {\r\n            i++;\r\n        }\r\n        return i;\r\n    }\r\n\r\n    // Remove mod for the student \r\n    function removeModByIndex(address student, uint256 i) public payable {\r\n        while (i<student_to_mod[student].length-1) {\r\n            student_to_mod[student][i] = student_to_mod[student][i+1];\r\n            i++;\r\n        }\r\n        student_to_mod[student].pop();\r\n    }\r\n\r\n    // Remove student for the mod\r\n    function removeStudentByIndex(uint256 mod, uint256 i) public payable {\r\n        while (i<mod_to_student[mod].length-1) {\r\n            mod_to_student[mod][i] = mod_to_student[mod][i+1];\r\n            i++;\r\n        }\r\n        mod_to_student[mod].pop();\r\n    }\r\n\r\n    // --------------------------- Getter functions ---------------------------------------\r\n    function getStudentBid(address student, uint256 mod) public view returns(uint256) {\r\n        return module_points[student][mod];\r\n    }\r\n\r\n    function getStudentMods(address student) public view returns(uint256[] memory) {\r\n        return student_to_mod[student];\r\n    }\r\n\r\n    function getModStudents(uint256 mod) public view returns(address[] memory) {\r\n        return mod_to_student[mod];\r\n    }\r\n}",
  "sourcePath": "C:\\Users\\Hazel Tan\\Documents\\BetterModReg2\\backend\\contracts\\BiddingMap.sol",
  "compiler": {
    "name": "solc",
    "version": "0.6.4+commit.1dca32f3.Emscripten.clang"
  },
  "schemaVersion": "3.4.5",
  "updatedAt": "2022-04-11T03:59:18.488Z",
  "networkType": "ethereum",
  "devdoc": {
    "methods": {}
  },
  "userdoc": {
    "methods": {}
  }
}