{
  "contractName": "ModRegSystem",
  "abi": [
    {
      "inputs": [
        {
          "internalType": "contract Students",
          "name": "studentAddress",
          "type": "address"
        },
        {
          "internalType": "contract Module",
          "name": "moduleAddress",
          "type": "address"
        },
        {
          "internalType": "contract BiddingMap",
          "name": "biddingMapAddress",
          "type": "address"
        },
        {
          "internalType": "contract BiddingPoints",
          "name": "bpAddress",
          "type": "address"
        }
      ],
      "stateMutability": "nonpayable",
      "type": "constructor"
    },
    {
      "inputs": [],
      "name": "allocatePoints",
      "outputs": [],
      "stateMutability": "nonpayable",
      "type": "function"
    },
    {
      "inputs": [
        {
          "internalType": "uint256",
          "name": "a",
          "type": "uint256"
        },
        {
          "internalType": "uint256",
          "name": "m",
          "type": "uint256"
        }
      ],
      "name": "ceil",
      "outputs": [
        {
          "internalType": "uint256",
          "name": "",
          "type": "uint256"
        }
      ],
      "stateMutability": "pure",
      "type": "function"
    },
    {
      "inputs": [
        {
          "internalType": "uint256",
          "name": "id",
          "type": "uint256"
        },
        {
          "internalType": "uint256",
          "name": "mod",
          "type": "uint256"
        },
        {
          "internalType": "uint256",
          "name": "points",
          "type": "uint256"
        }
      ],
      "name": "bid",
      "outputs": [],
      "stateMutability": "nonpayable",
      "type": "function"
    },
    {
      "inputs": [
        {
          "internalType": "uint256",
          "name": "mod",
          "type": "uint256"
        }
      ],
      "name": "cancelBid",
      "outputs": [],
      "stateMutability": "nonpayable",
      "type": "function"
    },
    {
      "inputs": [
        {
          "internalType": "uint256",
          "name": "mod",
          "type": "uint256"
        }
      ],
      "name": "checkMinimumBid",
      "outputs": [
        {
          "internalType": "uint256",
          "name": "",
          "type": "uint256"
        }
      ],
      "stateMutability": "view",
      "type": "function"
    },
    {
      "inputs": [
        {
          "internalType": "uint256",
          "name": "mod",
          "type": "uint256"
        }
      ],
      "name": "checkModuleRanking",
      "outputs": [
        {
          "internalType": "uint256",
          "name": "",
          "type": "uint256"
        }
      ],
      "stateMutability": "view",
      "type": "function"
    },
    {
      "inputs": [],
      "name": "checkAllRankings",
      "outputs": [
        {
          "internalType": "uint256[]",
          "name": "",
          "type": "uint256[]"
        },
        {
          "internalType": "uint256[]",
          "name": "",
          "type": "uint256[]"
        }
      ],
      "stateMutability": "view",
      "type": "function"
    },
    {
      "inputs": [],
      "name": "checkAllocatedModules",
      "outputs": [
        {
          "internalType": "uint256[]",
          "name": "",
          "type": "uint256[]"
        }
      ],
      "stateMutability": "view",
      "type": "function"
    },
    {
      "inputs": [],
      "name": "allocateModules",
      "outputs": [],
      "stateMutability": "nonpayable",
      "type": "function"
    }
  ],
  "bytecode": "0x608060405233600460006101000a81548173ffffffffffffffffffffffffffffffffffffffff021916908373ffffffffffffffffffffffffffffffffffffffff16021790555042600555603260065560f06007556000600860006101000a81548160ff0219169083151502179055506000600860016101000a81548160ff02191690831515021790555034801561009557600080fd5b50604051612612380380612612833981810160405260808110156100b857600080fd5b8101908080519060200190929190805190602001909291908051906020019092919080519060200190929190505050836000806101000a81548173ffffffffffffffffffffffffffffffffffffffff021916908373ffffffffffffffffffffffffffffffffffffffff16021790555082600160006101000a81548173ffffffffffffffffffffffffffffffffffffffff021916908373ffffffffffffffffffffffffffffffffffffffff16021790555081600260006101000a81548173ffffffffffffffffffffffffffffffffffffffff021916908373ffffffffffffffffffffffffffffffffffffffff16021790555080600360006101000a81548173ffffffffffffffffffffffffffffffffffffffff021916908373ffffffffffffffffffffffffffffffffffffffff16021790555050505050612415806101fd6000396000f3fe608060405234801561001057600080fd5b50600436106100935760003560e01c80637f3a4310116100665780637f3a4310146101cd5780638587be6e1461022c57806395a00711146102785780639703ef3514610282578063ef3b65dc146102b057610093565b80630757f346146100985780632ac9bf09146100da5780633848a60e1461011c5780637d8cca8e146101c3575b600080fd5b6100c4600480360360208110156100ae57600080fd5b81019080803590602001909291905050506102f2565b6040518082815260200191505060405180910390f35b61011a600480360360608110156100f057600080fd5b81019080803590602001909291908035906020019092919080359060200190929190505050610432565b005b610124610a41565b604051808060200180602001838103835285818151815260200191508051906020019060200280838360005b8381101561016b578082015181840152602081019050610150565b50505050905001838103825284818151815260200191508051906020019060200280838360005b838110156101ad578082015181840152602081019050610192565b5050505090500194505050505060405180910390f35b6101cb610e64565b005b6101d561133c565b6040518080602001828103825283818151815260200191508051906020019060200280838360005b838110156102185780820151818401526020810190506101fd565b505050509050019250505060405180910390f35b6102626004803603604081101561024257600080fd5b8101908080359060200190929190803590602001909291905050506115ac565b6040518082815260200191505060405180910390f35b6102806115c7565b005b6102ae6004803603602081101561029857600080fd5b8101908080359060200190929190505050611e0d565b005b6102dc600480360360208110156102c657600080fd5b810190808035906020019092919050505061227d565b6040518082815260200191505060405180910390f35b600060011515600860009054906101000a900460ff1615151461037d576040517f08c379a000000000000000000000000000000000000000000000000000000000815260040180806020018281038252601b8152602001807f42696464696e6720686173206e6f74207374617274656420796574000000000081525060200191505060405180910390fd5b600160009054906101000a900473ffffffffffffffffffffffffffffffffffffffff1673ffffffffffffffffffffffffffffffffffffffff1663ba951a2f836040518263ffffffff1660e01b81526004018082815260200191505060206040518083038186803b1580156103f057600080fd5b505afa158015610404573d6000803e3d6000fd5b505050506040513d602081101561041a57600080fd5b81019080805190602001909291905050509050919050565b60011515600860009054906101000a900460ff161515146104bb576040517f08c379a000000000000000000000000000000000000000000000000000000000815260040180806020018281038252601b8152602001807f42696464696e6720686173206e6f74207374617274656420796574000000000081525060200191505060405180910390fd5b80600360009054906101000a900473ffffffffffffffffffffffffffffffffffffffff1673ffffffffffffffffffffffffffffffffffffffff166329851d6b336040518263ffffffff1660e01b8152600401808273ffffffffffffffffffffffffffffffffffffffff1673ffffffffffffffffffffffffffffffffffffffff16815260200191505060206040518083038186803b15801561055b57600080fd5b505afa15801561056f573d6000803e3d6000fd5b505050506040513d602081101561058557600080fd5b8101908080519060200190929190505050101561060a576040517f08c379a000000000000000000000000000000000000000000000000000000000815260040180806020018281038252601d8152602001807f4e6f7420656e6f75676820706f696e747320666f722062696464696e6700000081525060200191505060405180910390fd5b600260009054906101000a900473ffffffffffffffffffffffffffffffffffffffff1673ffffffffffffffffffffffffffffffffffffffff166322fbffbf3384846040518463ffffffff1660e01b8152600401808473ffffffffffffffffffffffffffffffffffffffff1673ffffffffffffffffffffffffffffffffffffffff1681526020018381526020018281526020019350505050600060405180830381600087803b1580156106bb57600080fd5b505af11580156106cf573d6000803e3d6000fd5b50505050600360009054906101000a900473ffffffffffffffffffffffffffffffffffffffff1673ffffffffffffffffffffffffffffffffffffffff1663cc58a6bb600460009054906101000a900473ffffffffffffffffffffffffffffffffffffffff16836040518363ffffffff1660e01b8152600401808373ffffffffffffffffffffffffffffffffffffffff1673ffffffffffffffffffffffffffffffffffffffff16815260200182815260200192505050600060405180830381600087803b15801561079e57600080fd5b505af11580156107b2573d6000803e3d6000fd5b50505050600115156000809054906101000a900473ffffffffffffffffffffffffffffffffffffffff1673ffffffffffffffffffffffffffffffffffffffff16631949a58a856040518263ffffffff1660e01b81526004018082815260200191505060206040518083038186803b15801561082c57600080fd5b505afa158015610840573d6000803e3d6000fd5b505050506040513d602081101561085657600080fd5b810190808051906020019092919050505015151415610a3c576000600554420390506000610890610168838161088857fe5b0460016115ac565b600754039050600360009054906101000a900473ffffffffffffffffffffffffffffffffffffffff1673ffffffffffffffffffffffffffffffffffffffff166376661e45600460009054906101000a900473ffffffffffffffffffffffffffffffffffffffff1633846040518463ffffffff1660e01b8152600401808473ffffffffffffffffffffffffffffffffffffffff1673ffffffffffffffffffffffffffffffffffffffff1681526020018373ffffffffffffffffffffffffffffffffffffffff1673ffffffffffffffffffffffffffffffffffffffff1681526020018281526020019350505050600060405180830381600087803b15801561099557600080fd5b505af11580156109a9573d6000803e3d6000fd5b505050506000809054906101000a900473ffffffffffffffffffffffffffffffffffffffff1673ffffffffffffffffffffffffffffffffffffffff1663aa36716d866040518263ffffffff1660e01b815260040180828152602001915050600060405180830381600087803b158015610a2157600080fd5b505af1158015610a35573d6000803e3d6000fd5b5050505050505b505050565b60608060011515600860009054906101000a900460ff16151514610acd576040517f08c379a000000000000000000000000000000000000000000000000000000000815260040180806020018281038252601b8152602001807f42696464696e6720686173206e6f74207374617274656420796574000000000081525060200191505060405180910390fd5b600160009054906101000a900473ffffffffffffffffffffffffffffffffffffffff1673ffffffffffffffffffffffffffffffffffffffff1663b08bd014600260009054906101000a900473ffffffffffffffffffffffffffffffffffffffff1673ffffffffffffffffffffffffffffffffffffffff1663fcbac638336040518263ffffffff1660e01b8152600401808273ffffffffffffffffffffffffffffffffffffffff1673ffffffffffffffffffffffffffffffffffffffff16815260200191505060006040518083038186803b158015610baa57600080fd5b505afa158015610bbe573d6000803e3d6000fd5b505050506040513d6000823e3d601f19601f820116820180604052506020811015610be857600080fd5b8101908080516040519392919084640100000000821115610c0857600080fd5b83820191506020820185811115610c1e57600080fd5b8251866020820283011164010000000082111715610c3b57600080fd5b8083526020830192505050908051906020019060200280838360005b83811015610c72578082015181840152602081019050610c57565b505050509050016040525050506040518263ffffffff1660e01b81526004018080602001828103825283818151815260200191508051906020019060200280838360005b83811015610cd1578082015181840152602081019050610cb6565b505050509050019250505060006040518083038186803b158015610cf457600080fd5b505afa158015610d08573d6000803e3d6000fd5b505050506040513d6000823e3d601f19601f820116820180604052506040811015610d3257600080fd5b8101908080516040519392919084640100000000821115610d5257600080fd5b83820191506020820185811115610d6857600080fd5b8251866020820283011164010000000082111715610d8557600080fd5b8083526020830192505050908051906020019060200280838360005b83811015610dbc578082015181840152602081019050610da1565b5050505090500160405260200180516040519392919084640100000000821115610de557600080fd5b83820191506020820185811115610dfb57600080fd5b8251866020820283011164010000000082111715610e1857600080fd5b8083526020830192505050908051906020019060200280838360005b83811015610e4f578082015181840152602081019050610e34565b50505050905001604052505050915091509091565b600460009054906101000a900473ffffffffffffffffffffffffffffffffffffffff1673ffffffffffffffffffffffffffffffffffffffff163373ffffffffffffffffffffffffffffffffffffffff1614610ebe57600080fd5b6000610384905060006032905060008090505b6000809054906101000a900473ffffffffffffffffffffffffffffffffffffffff1673ffffffffffffffffffffffffffffffffffffffff1663589548f56040518163ffffffff1660e01b815260040160206040518083038186803b158015610f3857600080fd5b505afa158015610f4c573d6000803e3d6000fd5b505050506040513d6020811015610f6257600080fd5b810190808051906020019092919050505081101561131c5760008060009054906101000a900473ffffffffffffffffffffffffffffffffffffffff1673ffffffffffffffffffffffffffffffffffffffff166391a1b21e836040518263ffffffff1660e01b81526004018082815260200191505060206040518083038186803b158015610fee57600080fd5b505afa158015611002573d6000803e3d6000fd5b505050506040513d602081101561101857600080fd5b810190808051906020019092919050505060ff16830284019050600360009054906101000a900473ffffffffffffffffffffffffffffffffffffffff1673ffffffffffffffffffffffffffffffffffffffff1663cc58a6bb6000809054906101000a900473ffffffffffffffffffffffffffffffffffffffff1673ffffffffffffffffffffffffffffffffffffffff1663493f4f74856040518263ffffffff1660e01b81526004018082815260200191505060206040518083038186803b1580156110e257600080fd5b505afa1580156110f6573d6000803e3d6000fd5b505050506040513d602081101561110c57600080fd5b8101908080519060200190929190505050836040518363ffffffff1660e01b8152600401808373ffffffffffffffffffffffffffffffffffffffff1673ffffffffffffffffffffffffffffffffffffffff16815260200182815260200192505050600060405180830381600087803b15801561118757600080fd5b505af115801561119b573d6000803e3d6000fd5b50505050600360009054906101000a900473ffffffffffffffffffffffffffffffffffffffff1673ffffffffffffffffffffffffffffffffffffffff1663958ff7fb6000809054906101000a900473ffffffffffffffffffffffffffffffffffffffff1673ffffffffffffffffffffffffffffffffffffffff1663493f4f74856040518263ffffffff1660e01b81526004018082815260200191505060206040518083038186803b15801561124f57600080fd5b505afa158015611263573d6000803e3d6000fd5b505050506040513d602081101561127957600080fd5b81019080805190602001909291905050506007546040518363ffffffff1660e01b8152600401808373ffffffffffffffffffffffffffffffffffffffff1673ffffffffffffffffffffffffffffffffffffffff16815260200182815260200192505050600060405180830381600087803b1580156112f657600080fd5b505af115801561130a573d6000803e3d6000fd5b50505050508080600101915050610ed1565b506001600860006101000a81548160ff0219169083151502179055505050565b606060011515600860019054906101000a900460ff161515146113c7576040517f08c379a000000000000000000000000000000000000000000000000000000000815260040180806020018281038252601d8152602001807f42696464696e6720726f756e6420686173206e6f74207374617274656400000081525060200191505060405180910390fd5b60001515600860009054906101000a900460ff16151514611433576040517f08c379a00000000000000000000000000000000000000000000000000000000081526004018080602001828103825260228152602001806123be6022913960400191505060405180910390fd5b600260009054906101000a900473ffffffffffffffffffffffffffffffffffffffff1673ffffffffffffffffffffffffffffffffffffffff1663fcbac638336040518263ffffffff1660e01b8152600401808273ffffffffffffffffffffffffffffffffffffffff1673ffffffffffffffffffffffffffffffffffffffff16815260200191505060006040518083038186803b1580156114d257600080fd5b505afa1580156114e6573d6000803e3d6000fd5b505050506040513d6000823e3d601f19601f82011682018060405250602081101561151057600080fd5b810190808051604051939291908464010000000082111561153057600080fd5b8382019150602082018581111561154657600080fd5b825186602082028301116401000000008211171561156357600080fd5b8083526020830192505050908051906020019060200280838360005b8381101561159a57808201518184015260208101905061157f565b50505050905001604052505050905090565b60008182600184860103816115bd57fe5b0402905092915050565b600460009054906101000a900473ffffffffffffffffffffffffffffffffffffffff1673ffffffffffffffffffffffffffffffffffffffff163373ffffffffffffffffffffffffffffffffffffffff161461162157600080fd5b60011515600860009054906101000a900460ff161515146116aa576040517f08c379a000000000000000000000000000000000000000000000000000000000815260040180806020018281038252601b8152602001807f42696464696e6720686173206e6f74207374617274656420796574000000000081525060200191505060405180910390fd5b6000600860006101000a81548160ff0219169083151502179055506001600860016101000a81548160ff02191690831515021790555060008090505b6000809054906101000a900473ffffffffffffffffffffffffffffffffffffffff1673ffffffffffffffffffffffffffffffffffffffff1663589548f56040518163ffffffff1660e01b815260040160206040518083038186803b15801561174d57600080fd5b505afa158015611761573d6000803e3d6000fd5b505050506040513d602081101561177757600080fd5b8101908080519060200190929190505050811015611e0a5760008060009054906101000a900473ffffffffffffffffffffffffffffffffffffffff1673ffffffffffffffffffffffffffffffffffffffff1663493f4f74836040518263ffffffff1660e01b81526004018082815260200191505060206040518083038186803b15801561180357600080fd5b505afa158015611817573d6000803e3d6000fd5b505050506040513d602081101561182d57600080fd5b810190808051906020019092919050505090506060600260009054906101000a900473ffffffffffffffffffffffffffffffffffffffff1673ffffffffffffffffffffffffffffffffffffffff1663fcbac638836040518263ffffffff1660e01b8152600401808273ffffffffffffffffffffffffffffffffffffffff1673ffffffffffffffffffffffffffffffffffffffff16815260200191505060006040518083038186803b1580156118e157600080fd5b505afa1580156118f5573d6000803e3d6000fd5b505050506040513d6000823e3d601f19601f82011682018060405250602081101561191f57600080fd5b810190808051604051939291908464010000000082111561193f57600080fd5b8382019150602082018581111561195557600080fd5b825186602082028301116401000000008211171561197257600080fd5b8083526020830192505050908051906020019060200280838360005b838110156119a957808201518184015260208101905061198e565b505050509050016040525050509050600080905060008090505b8251811015611d2f57600160009054906101000a900473ffffffffffffffffffffffffffffffffffffffff1673ffffffffffffffffffffffffffffffffffffffff1663a730edba848381518110611a1657fe5b60200260200101516040518263ffffffff1660e01b81526004018082815260200191505060206040518083038186803b158015611a5257600080fd5b505afa158015611a66573d6000803e3d6000fd5b505050506040513d6020811015611a7c57600080fd5b8101908080519060200190929190505050600160009054906101000a900473ffffffffffffffffffffffffffffffffffffffff1673ffffffffffffffffffffffffffffffffffffffff1663bab531a1858481518110611ad757fe5b60200260200101516040518263ffffffff1660e01b81526004018082815260200191505060206040518083038186803b158015611b1357600080fd5b505afa158015611b27573d6000803e3d6000fd5b505050506040513d6020811015611b3d57600080fd5b81019080805190602001909291905050501115611d2257600260009054906101000a900473ffffffffffffffffffffffffffffffffffffffff1673ffffffffffffffffffffffffffffffffffffffff16636b5f0b1c85858481518110611b9f57fe5b60200260200101516040518363ffffffff1660e01b8152600401808373ffffffffffffffffffffffffffffffffffffffff1673ffffffffffffffffffffffffffffffffffffffff1681526020018281526020019250505060206040518083038186803b158015611c0e57600080fd5b505afa158015611c22573d6000803e3d6000fd5b505050506040513d6020811015611c3857600080fd5b810190808051906020019092919050505082019150600260009054906101000a900473ffffffffffffffffffffffffffffffffffffffff1673ffffffffffffffffffffffffffffffffffffffff16638dfcb07785858481518110611c9857fe5b60200260200101516040518363ffffffff1660e01b8152600401808373ffffffffffffffffffffffffffffffffffffffff1673ffffffffffffffffffffffffffffffffffffffff16815260200182815260200192505050600060405180830381600087803b158015611d0957600080fd5b505af1158015611d1d573d6000803e3d6000fd5b505050505b80806001019150506119c3565b5060008114611dfa57600360009054906101000a900473ffffffffffffffffffffffffffffffffffffffff1673ffffffffffffffffffffffffffffffffffffffff1663cc58a6bb84836040518363ffffffff1660e01b8152600401808373ffffffffffffffffffffffffffffffffffffffff1673ffffffffffffffffffffffffffffffffffffffff16815260200182815260200192505050600060405180830381600087803b158015611de157600080fd5b505af1158015611df5573d6000803e3d6000fd5b505050505b50505080806001019150506116e6565b50565b60011515600860009054906101000a900460ff16151514611e96576040517f08c379a000000000000000000000000000000000000000000000000000000000815260040180806020018281038252601b8152602001807f42696464696e6720686173206e6f74207374617274656420796574000000000081525060200191505060405180910390fd5b6000600654600260009054906101000a900473ffffffffffffffffffffffffffffffffffffffff1673ffffffffffffffffffffffffffffffffffffffff16636b5f0b1c33856040518363ffffffff1660e01b8152600401808373ffffffffffffffffffffffffffffffffffffffff1673ffffffffffffffffffffffffffffffffffffffff1681526020018281526020019250505060206040518083038186803b158015611f4257600080fd5b505afa158015611f56573d6000803e3d6000fd5b505050506040513d6020811015611f6c57600080fd5b81019080805190602001909291905050500311611ff1576040517f08c379a00000000000000000000000000000000000000000000000000000000081526004018080602001828103825260208152602001807f4e6f7420656e6f75676820706f696e747320746f2063616e63656c206269642181525060200191505060405180910390fd5b600360009054906101000a900473ffffffffffffffffffffffffffffffffffffffff1673ffffffffffffffffffffffffffffffffffffffff1663cc58a6bb600460009054906101000a900473ffffffffffffffffffffffffffffffffffffffff16600654600260009054906101000a900473ffffffffffffffffffffffffffffffffffffffff1673ffffffffffffffffffffffffffffffffffffffff16636b5f0b1c33876040518363ffffffff1660e01b8152600401808373ffffffffffffffffffffffffffffffffffffffff1673ffffffffffffffffffffffffffffffffffffffff1681526020018281526020019250505060206040518083038186803b1580156120fc57600080fd5b505afa158015612110573d6000803e3d6000fd5b505050506040513d602081101561212657600080fd5b8101908080519060200190929190505050036040518363ffffffff1660e01b8152600401808373ffffffffffffffffffffffffffffffffffffffff1673ffffffffffffffffffffffffffffffffffffffff16815260200182815260200192505050600060405180830381600087803b1580156121a157600080fd5b505af11580156121b5573d6000803e3d6000fd5b50505050600260009054906101000a900473ffffffffffffffffffffffffffffffffffffffff1673ffffffffffffffffffffffffffffffffffffffff1663ba9c88c433836040518363ffffffff1660e01b8152600401808373ffffffffffffffffffffffffffffffffffffffff1673ffffffffffffffffffffffffffffffffffffffff16815260200182815260200192505050600060405180830381600087803b15801561226257600080fd5b505af1158015612276573d6000803e3d6000fd5b5050505050565b600060011515600860009054906101000a900460ff16151514612308576040517f08c379a000000000000000000000000000000000000000000000000000000000815260040180806020018281038252601b8152602001807f42696464696e6720686173206e6f74207374617274656420796574000000000081525060200191505060405180910390fd5b600160009054906101000a900473ffffffffffffffffffffffffffffffffffffffff1673ffffffffffffffffffffffffffffffffffffffff1663bab531a1836040518263ffffffff1660e01b81526004018082815260200191505060206040518083038186803b15801561237b57600080fd5b505afa15801561238f573d6000803e3d6000fd5b505050506040513d60208110156123a557600080fd5b8101908080519060200190929190505050905091905056fe42696464696e6720726f756e64206973207374696c6c20696e2070726f6772657373a264697066735822122029d0ff6515eedc3bfded7306a022fb43a60b66476fa23a5c9caf3a70824243b064736f6c63430006040033",
  "source": "pragma solidity ^0.6.0;\r\nimport\"./BiddingPoints.sol\";\r\nimport\"./Students.sol\"; \r\nimport\"./Module.sol\";\r\nimport\"./BiddingMap.sol\";\r\n\r\ncontract ModRegSystem {\r\n    Students studentContract;\r\n    Module moduleContract; \r\n    BiddingMap biddingMapContract;\r\n    BiddingPoints BP; \r\n    address _owner = msg.sender;\r\n    uint256 roundStart = block.timestamp; \r\n    // uint256 roundEnd = roundStart + 1 days; // Use this for live deployment only\r\n    uint256 penalty = 50; \r\n    // Account for bonus point in bidding\r\n    uint256 bonus = 240; // max bonus is 240, with decay of 1 point every 6 minutes    \r\n    bool roundActive = false; // for developmental testing\r\n    bool roundEnd = false; \r\n\r\n    constructor(Students studentAddress, Module moduleAddress, BiddingMap biddingMapAddress, BiddingPoints bpAddress) public {\r\n        studentContract = studentAddress;\r\n        moduleContract = moduleAddress;\r\n        biddingMapContract = biddingMapAddress;\r\n        BP = bpAddress; \r\n    }\r\n\r\n    modifier ownerOnly() {\r\n        require(msg.sender == _owner); // Ensure only Modreg System can end round and handle allocation\r\n        _;\r\n    }\r\n\r\n    // Allocate points to all student accounts, start round 1  \r\n    function allocatePoints() public ownerOnly { \r\n        uint256 basePoints = 900; \r\n        uint256 seniorityPoints = 50; // To be confirmed \r\n        for (uint i = 0; i < studentContract.get_numStudents(); i++) {\r\n            uint256 pointsAllocated = basePoints + (seniorityPoints * studentContract.get_seniority(i)); // Year 4 gets 1100 points, 3 additional rebids\r\n            BP.transferCredit(studentContract.get_address(i), pointsAllocated);\r\n            BP.giveAllowance(studentContract.get_address(i), bonus);\r\n        }\r\n        roundActive = true;\r\n    }\r\n\r\n    function ceil(uint a, uint m) public pure returns (uint) {\r\n        return ((a + m - 1) / m) * m;\r\n    }\r\n    \r\n    function bid (uint256 id, uint256 mod, uint256 points) public {\r\n        require(roundActive == true, \"Bidding has not started yet\");\r\n        require(BP.checkCredit(msg.sender) >= points, \"Not enough points for bidding\"); \r\n        biddingMapContract.bidMod(msg.sender, mod, points);\r\n        BP.transferCredit(_owner, points);\r\n        \r\n        if(studentContract.check_firstBid(id) == true) {\r\n            uint256 time_elapsed = block.timestamp - roundStart; // in seconds\r\n            uint256 bonus_points = bonus - ceil((time_elapsed / 360), 1);\r\n            BP.transferCreditFrom(_owner, msg.sender, bonus_points);\r\n            studentContract.set_firstBid(id);\r\n        }\r\n    }\r\n\r\n    function cancelBid (uint256 mod) public {\r\n        require(roundActive == true, \"Bidding has not started yet\");\r\n        require((biddingMapContract.getStudentBid(msg.sender, mod) - penalty) > 0, \"Not enough points to cancel bid!\");\r\n        // Penalization \r\n        BP.transferCredit(_owner, (biddingMapContract.getStudentBid(msg.sender, mod) - penalty));\r\n        biddingMapContract.unbidMod(msg.sender, mod);    \r\n    }\r\n\r\n    function checkMinimumBid (uint256 mod) public view returns (uint256) {\r\n        require(roundActive == true, \"Bidding has not started yet\");\r\n        return moduleContract.check_minimum_bid(mod);\r\n    }\r\n\r\n    function checkModuleRanking (uint256 mod) public view returns (uint256) {\r\n        require(roundActive == true, \"Bidding has not started yet\");\r\n        return moduleContract.get_ranking(mod); \r\n    }\r\n\r\n    function checkAllRankings() public view returns (uint256[] memory, uint256[] memory) {\r\n        require(roundActive == true, \"Bidding has not started yet\");\r\n        return moduleContract.check_ranking(biddingMapContract.getStudentMods(msg.sender));\r\n    }\r\n\r\n    function checkAllocatedModules() public view returns (uint256[] memory) {\r\n        require(roundEnd == true, \"Bidding round has not started\");\r\n        require(roundActive == false, \"Bidding round is still in progress\");\r\n        // require(block.timestamp >= roundEnd); \r\n        return biddingMapContract.getStudentMods(msg.sender); \r\n    }\r\n\r\n    function allocateModules() public ownerOnly {\r\n        require(roundActive == true, \"Bidding has not started yet\");\r\n        // require(block.timestamp >= roundEnd); \r\n        roundActive = false; \r\n        roundEnd = true; \r\n        for (uint i = 0; i < studentContract.get_numStudents(); i++) {\r\n            address studentAddress = studentContract.get_address(i);\r\n            uint256[] memory studentMods = biddingMapContract.getStudentMods(studentAddress);\r\n            uint256 refundPoints = 0;\r\n            for (uint j = 0; j < studentMods.length; j++) {\r\n                if (moduleContract.get_ranking(studentMods[j]) > moduleContract.getModuleQuota(studentMods[j])) {\r\n                    refundPoints += biddingMapContract.getStudentBid(studentAddress, studentMods[j]);\r\n                    biddingMapContract.removeModByIndex(studentAddress, studentMods[j]);\r\n                } \r\n            }\r\n            if (refundPoints != 0) {\r\n                BP.transferCredit(studentAddress, refundPoints);\r\n            }\r\n        } \r\n    }  \r\n}",
  "sourcePath": "C:\\Users\\kenne\\Desktop\\BetterModReg\\backend\\contracts\\ModRegSystem.sol",
  "compiler": {
    "name": "solc",
    "version": "0.6.4+commit.1dca32f3.Emscripten.clang"
  },
  "schemaVersion": "3.4.4",
  "updatedAt": "2022-04-11T08:08:04.785Z",
  "devdoc": {
    "methods": {}
  },
  "userdoc": {
    "methods": {}
  }
}