{
  "contractName": "Module",
  "abi": [
    {
      "inputs": [
        {
          "internalType": "contract BiddingMap",
          "name": "bidding_map_address",
          "type": "address"
        }
      ],
      "stateMutability": "nonpayable",
      "type": "constructor"
    },
    {
      "inputs": [
        {
          "internalType": "uint256",
          "name": "",
          "type": "uint256"
        }
      ],
      "name": "modules",
      "outputs": [
        {
          "internalType": "uint256",
          "name": "module_code",
          "type": "uint256"
        },
        {
          "internalType": "uint256",
          "name": "student_quota",
          "type": "uint256"
        }
      ],
      "stateMutability": "view",
      "type": "function"
    },
    {
      "inputs": [],
      "name": "numModules",
      "outputs": [
        {
          "internalType": "uint256",
          "name": "",
          "type": "uint256"
        }
      ],
      "stateMutability": "view",
      "type": "function"
    },
    {
      "inputs": [
        {
          "internalType": "uint256",
          "name": "module_code",
          "type": "uint256"
        },
        {
          "internalType": "uint256",
          "name": "quota",
          "type": "uint256"
        }
      ],
      "name": "add",
      "outputs": [
        {
          "internalType": "uint256",
          "name": "",
          "type": "uint256"
        }
      ],
      "stateMutability": "nonpayable",
      "type": "function"
    },
    {
      "inputs": [
        {
          "internalType": "uint256",
          "name": "module_code",
          "type": "uint256"
        }
      ],
      "name": "check_minimum_bid",
      "outputs": [
        {
          "internalType": "uint256",
          "name": "",
          "type": "uint256"
        }
      ],
      "stateMutability": "view",
      "type": "function"
    },
    {
      "inputs": [
        {
          "internalType": "uint256",
          "name": "module_code",
          "type": "uint256"
        }
      ],
      "name": "get_ranking",
      "outputs": [
        {
          "internalType": "uint256",
          "name": "",
          "type": "uint256"
        }
      ],
      "stateMutability": "view",
      "type": "function"
    },
    {
      "inputs": [
        {
          "internalType": "uint256[]",
          "name": "selected_modules",
          "type": "uint256[]"
        }
      ],
      "name": "check_ranking",
      "outputs": [
        {
          "internalType": "uint256[]",
          "name": "",
          "type": "uint256[]"
        },
        {
          "internalType": "uint256[]",
          "name": "",
          "type": "uint256[]"
        }
      ],
      "stateMutability": "view",
      "type": "function"
    },
    {
      "inputs": [],
      "name": "get_numModules",
      "outputs": [
        {
          "internalType": "uint256",
          "name": "",
          "type": "uint256"
        }
      ],
      "stateMutability": "view",
      "type": "function"
    },
    {
      "inputs": [
        {
          "internalType": "uint256",
          "name": "module_code",
          "type": "uint256"
        }
      ],
      "name": "getModuleQuota",
      "outputs": [
        {
          "internalType": "uint256",
          "name": "",
          "type": "uint256"
        }
      ],
      "stateMutability": "view",
      "type": "function"
    }
  ],
  "bytecode": "0x608060405233600160006101000a81548173ffffffffffffffffffffffffffffffffffffffff021916908373ffffffffffffffffffffffffffffffffffffffff160217905550600060035534801561005657600080fd5b5060405161145d38038061145d8339818101604052602081101561007957600080fd5b8101908080519060200190929190505050806000806101000a81548173ffffffffffffffffffffffffffffffffffffffff021916908373ffffffffffffffffffffffffffffffffffffffff16021790555050611383806100da6000396000f3fe608060405234801561001057600080fd5b50600436106100885760003560e01c8063a8640ffc1161005b578063a8640ffc14610182578063b08bd014146101a0578063ba951a2f146102f5578063bab531a11461033757610088565b8063771602f71461008d57806381b2248a146100d95780638ac341c614610122578063a730edba14610140575b600080fd5b6100c3600480360360408110156100a357600080fd5b810190808035906020019092919080359060200190929190505050610379565b6040518082815260200191505060405180910390f35b610105600480360360208110156100ef57600080fd5b81019080803590602001909291905050506103e1565b604051808381526020018281526020019250505060405180910390f35b61012a610405565b6040518082815260200191505060405180910390f35b61016c6004803603602081101561015657600080fd5b810190808035906020019092919050505061040b565b6040518082815260200191505060405180910390f35b61018a61042b565b6040518082815260200191505060405180910390f35b610256600480360360208110156101b657600080fd5b81019080803590602001906401000000008111156101d357600080fd5b8201836020820111156101e557600080fd5b8035906020019184602083028401116401000000008311171561020757600080fd5b919080806020026020016040519081016040528093929190818152602001838360200280828437600081840152601f19601f820116905080830192505050505050509192919290505050610435565b604051808060200180602001838103835285818151815260200191508051906020019060200280838360005b8381101561029d578082015181840152602081019050610282565b50505050905001838103825284818151815260200191508051906020019060200280838360005b838110156102df5780820151818401526020810190506102c4565b5050505090500194505050505060405180910390f35b6103216004803603602081101561030b57600080fd5b81019080803590602001909291905050506104d6565b6040518082815260200191505060405180910390f35b6103636004803603602081101561034d57600080fd5b8101908080359060200190929190505050610cab565b6040518082815260200191505060405180910390f35b6000610383611310565b6040518060400160405280858152602001848152509050600360008154809291906001019190505550806002600086815260200190815260200160002060008201518160000155602082015181600101559050508391505092915050565b60026020528060005260406000206000915090508060000154908060010154905082565b60035481565b600060026000838152602001908152602001600020600101549050919050565b6000600354905090565b60608060008351905060608160405190808252806020026020018201604052801561046f5781602001602082028036833780820191505090505b50905060008090505b85518110156104c857600061049f87838151811061049257fe5b6020026020010151610cab565b9050808383815181106104ae57fe5b602002602001018181525050508080600101915050610478565b508085935093505050915091565b60008160008060009054906101000a900473ffffffffffffffffffffffffffffffffffffffff1673ffffffffffffffffffffffffffffffffffffffff16636b5f0b1c32846040518363ffffffff1660e01b8152600401808373ffffffffffffffffffffffffffffffffffffffff1673ffffffffffffffffffffffffffffffffffffffff1681526020018281526020019250505060206040518083038186803b15801561058157600080fd5b505afa158015610595573d6000803e3d6000fd5b505050506040513d60208110156105ab57600080fd5b810190808051906020019092919050505090506000811415610618576040517f08c379a000000000000000000000000000000000000000000000000000000000815260040180806020018281038252602381526020018061132b6023913960400191505060405180910390fd5b600080905060606000809054906101000a900473ffffffffffffffffffffffffffffffffffffffff1673ffffffffffffffffffffffffffffffffffffffff1663c0fe4494876040518263ffffffff1660e01b81526004018082815260200191505060006040518083038186803b15801561069157600080fd5b505afa1580156106a5573d6000803e3d6000fd5b505050506040513d6000823e3d601f19601f8201168201806040525060208110156106cf57600080fd5b81019080805160405193929190846401000000008211156106ef57600080fd5b8382019150602082018581111561070557600080fd5b825186602082028301116401000000008211171561072257600080fd5b8083526020830192505050908051906020019060200280838360005b8381101561075957808201518184015260208101905061073e565b50505050905001604052505050905060008090505b8151811015610a655760006001820190505b8251811015610a5757600083838151811061079757fe5b6020026020010151905060008483815181106107af57fe5b6020026020010151905060008060009054906101000a900473ffffffffffffffffffffffffffffffffffffffff1673ffffffffffffffffffffffffffffffffffffffff16636b5f0b1c848d6040518363ffffffff1660e01b8152600401808373ffffffffffffffffffffffffffffffffffffffff1673ffffffffffffffffffffffffffffffffffffffff1681526020018281526020019250505060206040518083038186803b15801561086157600080fd5b505afa158015610875573d6000803e3d6000fd5b505050506040513d602081101561088b57600080fd5b8101908080519060200190929190505050905060008060009054906101000a900473ffffffffffffffffffffffffffffffffffffffff1673ffffffffffffffffffffffffffffffffffffffff16636b5f0b1c848e6040518363ffffffff1660e01b8152600401808373ffffffffffffffffffffffffffffffffffffffff1673ffffffffffffffffffffffffffffffffffffffff1681526020018281526020019250505060206040518083038186803b15801561094657600080fd5b505afa15801561095a573d6000803e3d6000fd5b505050506040513d602081101561097057600080fd5b8101908080519060200190929190505050905080821015610a4657600087868151811061099957fe5b602002602001015190508787815181106109af57fe5b60200260200101518887815181106109c357fe5b602002602001019073ffffffffffffffffffffffffffffffffffffffff16908173ffffffffffffffffffffffffffffffffffffffff168152505080888881518110610a0a57fe5b602002602001019073ffffffffffffffffffffffffffffffffffffffff16908173ffffffffffffffffffffffffffffffffffffffff1681525050505b505050508080600101915050610780565b50808060010191505061076e565b506002600087815260200190815260200160002060010154815111610b8957600081600183510381518110610a9657fe5b602002602001015190506000809054906101000a900473ffffffffffffffffffffffffffffffffffffffff1673ffffffffffffffffffffffffffffffffffffffff16636b5f0b1c82896040518363ffffffff1660e01b8152600401808373ffffffffffffffffffffffffffffffffffffffff1673ffffffffffffffffffffffffffffffffffffffff1681526020018281526020019250505060206040518083038186803b158015610b4657600080fd5b505afa158015610b5a573d6000803e3d6000fd5b505050506040513d6020811015610b7057600080fd5b8101908080519060200190929190505050925050610c9f565b6000816001600260008a8152602001908152602001600020600101540381518110610bb057fe5b602002602001015190506000809054906101000a900473ffffffffffffffffffffffffffffffffffffffff1673ffffffffffffffffffffffffffffffffffffffff16636b5f0b1c82896040518363ffffffff1660e01b8152600401808373ffffffffffffffffffffffffffffffffffffffff1673ffffffffffffffffffffffffffffffffffffffff1681526020018281526020019250505060206040518083038186803b158015610c6057600080fd5b505afa158015610c74573d6000803e3d6000fd5b505050506040513d6020811015610c8a57600080fd5b81019080805190602001909291905050509250505b81945050505050919050565b60008160008060009054906101000a900473ffffffffffffffffffffffffffffffffffffffff1673ffffffffffffffffffffffffffffffffffffffff16636b5f0b1c32846040518363ffffffff1660e01b8152600401808373ffffffffffffffffffffffffffffffffffffffff1673ffffffffffffffffffffffffffffffffffffffff1681526020018281526020019250505060206040518083038186803b158015610d5657600080fd5b505afa158015610d6a573d6000803e3d6000fd5b505050506040513d6020811015610d8057600080fd5b81019080805190602001909291905050509050600081141580610df05750600160009054906101000a900473ffffffffffffffffffffffffffffffffffffffff1673ffffffffffffffffffffffffffffffffffffffff163273ffffffffffffffffffffffffffffffffffffffff16145b610e45576040517f08c379a000000000000000000000000000000000000000000000000000000000815260040180806020018281038252602381526020018061132b6023913960400191505060405180910390fd5b60606000809054906101000a900473ffffffffffffffffffffffffffffffffffffffff1673ffffffffffffffffffffffffffffffffffffffff1663c0fe4494866040518263ffffffff1660e01b81526004018082815260200191505060006040518083038186803b158015610eb957600080fd5b505afa158015610ecd573d6000803e3d6000fd5b505050506040513d6000823e3d601f19601f820116820180604052506020811015610ef757600080fd5b8101908080516040519392919084640100000000821115610f1757600080fd5b83820191506020820185811115610f2d57600080fd5b8251866020820283011164010000000082111715610f4a57600080fd5b8083526020830192505050908051906020019060200280838360005b83811015610f81578082015181840152602081019050610f66565b50505050905001604052505050905060008090505b815181101561128d5760006001820190505b825181101561127f576000838381518110610fbf57fe5b602002602001015190506000848381518110610fd757fe5b6020026020010151905060008060009054906101000a900473ffffffffffffffffffffffffffffffffffffffff1673ffffffffffffffffffffffffffffffffffffffff16636b5f0b1c848c6040518363ffffffff1660e01b8152600401808373ffffffffffffffffffffffffffffffffffffffff1673ffffffffffffffffffffffffffffffffffffffff1681526020018281526020019250505060206040518083038186803b15801561108957600080fd5b505afa15801561109d573d6000803e3d6000fd5b505050506040513d60208110156110b357600080fd5b8101908080519060200190929190505050905060008060009054906101000a900473ffffffffffffffffffffffffffffffffffffffff1673ffffffffffffffffffffffffffffffffffffffff16636b5f0b1c848d6040518363ffffffff1660e01b8152600401808373ffffffffffffffffffffffffffffffffffffffff1673ffffffffffffffffffffffffffffffffffffffff1681526020018281526020019250505060206040518083038186803b15801561116e57600080fd5b505afa158015611182573d6000803e3d6000fd5b505050506040513d602081101561119857600080fd5b810190808051906020019092919050505090508082101561126e5760008786815181106111c157fe5b602002602001015190508787815181106111d757fe5b60200260200101518887815181106111eb57fe5b602002602001019073ffffffffffffffffffffffffffffffffffffffff16908173ffffffffffffffffffffffffffffffffffffffff16815250508088888151811061123257fe5b602002602001019073ffffffffffffffffffffffffffffffffffffffff16908173ffffffffffffffffffffffffffffffffffffffff1681525050505b505050508080600101915050610fa8565b508080600101915050610f96565b506000329050600080905060008090505b8351811015611302578273ffffffffffffffffffffffffffffffffffffffff168482815181106112ca57fe5b602002602001015173ffffffffffffffffffffffffffffffffffffffff1614156112f5576001810191505b808060010191505061129e565b508095505050505050919050565b60405180604001604052806000815260200160008152509056fe53747564656e7420646964206e6f742062696420666f722074686973206d6f64756c65a264697066735822122016e2c50ed73e2049d965fd95778841cc45c1e2d63bb60b418e2baea27fc4645764736f6c63430006040033",
  "source": "pragma solidity ^0.6.0;\r\n\r\nimport \"./BiddingMap.sol\";\r\ncontract Module{\r\n\r\n    BiddingMap mapping_contract;\r\n    address _owner = msg.sender;\r\n\r\n    struct module{\r\n        uint256 module_code;\r\n        uint256 student_quota;\r\n    }\r\n\r\n    mapping(uint256 => module) public modules;\r\n\r\n    uint256 public numModules = 0;\r\n\r\n    constructor(BiddingMap bidding_map_address) public {\r\n        mapping_contract = bidding_map_address;\r\n        \r\n        \r\n    }\r\n\r\n    function add(\r\n        uint256 module_code,\r\n        uint256 quota\r\n    ) public returns(uint256) {\r\n    \r\n\r\n        module memory newModule = module(\r\n            module_code,\r\n            quota \r\n        );\r\n\r\n        numModules++;\r\n        modules[module_code] = newModule; //commit to state variable\r\n        return module_code;   \r\n    }\r\n\r\n// bidderOnly aims to check if the msg.sender is inside the mapping \r\n    modifier bidderOnly(uint256 module_code) {\r\n        uint256 bids = mapping_contract.getStudentBid(tx.origin,module_code);\r\n        require(bids!=0, \"Student did not bid for this module\");\r\n        _;\r\n    }\r\n\r\n    modifier bidderAndOwnerOnly(uint256 module_code) {\r\n        uint256 bids = mapping_contract.getStudentBid(tx.origin,module_code);\r\n        require((bids != 0) || (tx.origin == _owner), \"Student did not bid for this module\");\r\n        _;\r\n    }\r\n\r\n    function check_minimum_bid(uint256 module_code) view public bidderOnly(module_code) returns (uint256){\r\n\r\n        uint256 minBids = 0;\r\n\r\n        address[] memory students=mapping_contract.getModStudents(module_code);\r\n\r\n        //sort ranking\r\n        for(uint i =0;i<students.length;i++){\r\n            for(uint j =i+1;j< students.length ;j++){\r\n                address bidder_i = students[i];\r\n                address bidder_j = students[j];\r\n                uint256 i_bids=mapping_contract.getStudentBid(bidder_i,module_code);\r\n                uint256 j_bids=mapping_contract.getStudentBid(bidder_j,module_code);\r\n                if( i_bids < j_bids)\r\n                {\r\n                    address temp= students[j];\r\n                    students[j]=students[i];\r\n                    students[i] = temp;\r\n\r\n                }\r\n\r\n            }\r\n        }\r\n\r\n        if(students.length <= modules[module_code].student_quota){\r\n\r\n            address min_bidder = students[students.length-1];\r\n            minBids=mapping_contract.getStudentBid(min_bidder, module_code);\r\n\r\n        }\r\n        else{\r\n            address min_bidder = students[modules[module_code].student_quota-1];\r\n            minBids=mapping_contract.getStudentBid(min_bidder, module_code);\r\n\r\n\r\n\r\n        }\r\n\r\n        return minBids;\r\n\r\n    }\r\n\r\n  // Get ranking in a module. \r\n    function get_ranking(uint256 module_code) public view bidderAndOwnerOnly(module_code) returns (uint256){\r\n\r\n        address[] memory students = mapping_contract.getModStudents(module_code);\r\n\r\n        // Sort ranking \r\n        for(uint i =0;i<students.length;i++){\r\n            for(uint j =i+1;j< students.length ;j++){\r\n                address bidder_i = students[i];\r\n                address bidder_j = students[j];\r\n                uint256 i_bids=mapping_contract.getStudentBid(bidder_i,module_code);\r\n                uint256 j_bids=mapping_contract.getStudentBid(bidder_j,module_code);\r\n                if( i_bids < j_bids)\r\n                {\r\n                    address temp= students[j];\r\n                    students[j]=students[i];\r\n                    students[i] = temp;\r\n\r\n                }\r\n\r\n            }\r\n        }\r\n        // Get ranking\r\n        address sender = tx.origin;\r\n        uint256 rank=0;\r\n\r\n        for(uint i = 0; i < students.length;  i++) {\r\n            if(students[i] == sender) {\r\n                \r\n                rank = (i + 1);\r\n            }\r\n        }\r\n\r\n        return rank;\r\n\r\n    }\r\n\r\n    // get ranking for multiple modules\r\n\r\n    function check_ranking(uint256[] memory selected_modules)  public view returns(uint256[] memory, uint256[] memory){\r\n\r\n        uint256 l = selected_modules.length;\r\n        uint256[] memory rankings = new uint256[](l);\r\n\r\n         for(uint i = 0; i < selected_modules.length;  i++) {\r\n\r\n             uint256 rank= get_ranking(selected_modules[i]);\r\n             rankings[i] = rank;\r\n    \r\n        }\r\n\r\n        return (rankings, selected_modules);\r\n\r\n    }\r\n\r\n    function get_numModules() public view returns(uint256) {\r\n        return numModules;\r\n    }\r\n\r\n    function getModuleQuota(uint256 module_code) public view returns (uint256) {\r\n        return modules[module_code].student_quota;\r\n    }\r\n}",
  "sourcePath": "C:\\Users\\kenne\\Desktop\\BetterModReg\\backend\\contracts\\Module.sol",
  "compiler": {
    "name": "solc",
    "version": "0.6.4+commit.1dca32f3.Emscripten.clang"
  },
  "schemaVersion": "3.4.4",
  "updatedAt": "2022-04-11T09:09:56.446Z",
  "devdoc": {
    "methods": {}
  },
  "userdoc": {
    "methods": {}
  }
}