{
  "contractName": "Students",
  "abi": [
    {
      "inputs": [
        {
          "internalType": "address",
          "name": "",
          "type": "address"
        }
      ],
      "name": "createdStudents",
      "outputs": [
        {
          "internalType": "uint8",
          "name": "",
          "type": "uint8"
        }
      ],
      "stateMutability": "view",
      "type": "function",
      "constant": true
    },
    {
      "inputs": [],
      "name": "numStudents",
      "outputs": [
        {
          "internalType": "uint256",
          "name": "",
          "type": "uint256"
        }
      ],
      "stateMutability": "view",
      "type": "function",
      "constant": true
    },
    {
      "inputs": [
        {
          "internalType": "uint256",
          "name": "",
          "type": "uint256"
        }
      ],
      "name": "students",
      "outputs": [
        {
          "internalType": "address",
          "name": "addr",
          "type": "address"
        },
        {
          "internalType": "string",
          "name": "name",
          "type": "string"
        },
        {
          "internalType": "string",
          "name": "username",
          "type": "string"
        },
        {
          "internalType": "string",
          "name": "password",
          "type": "string"
        },
        {
          "internalType": "string",
          "name": "email",
          "type": "string"
        },
        {
          "internalType": "uint8",
          "name": "seniority",
          "type": "uint8"
        },
        {
          "internalType": "string",
          "name": "major",
          "type": "string"
        },
        {
          "internalType": "string",
          "name": "minor",
          "type": "string"
        },
        {
          "internalType": "bool",
          "name": "firstBid",
          "type": "bool"
        }
      ],
      "stateMutability": "view",
      "type": "function",
      "constant": true
    },
    {
      "inputs": [
        {
          "internalType": "string",
          "name": "name",
          "type": "string"
        },
        {
          "internalType": "string",
          "name": "username",
          "type": "string"
        },
        {
          "internalType": "string",
          "name": "password",
          "type": "string"
        },
        {
          "internalType": "string",
          "name": "email",
          "type": "string"
        },
        {
          "internalType": "uint8",
          "name": "seniority",
          "type": "uint8"
        },
        {
          "internalType": "string",
          "name": "major",
          "type": "string"
        },
        {
          "internalType": "string",
          "name": "minor",
          "type": "string"
        }
      ],
      "name": "addStudent",
      "outputs": [],
      "stateMutability": "payable",
      "type": "function",
      "payable": true
    },
    {
      "inputs": [
        {
          "internalType": "uint256",
          "name": "id",
          "type": "uint256"
        }
      ],
      "name": "set_firstBid",
      "outputs": [],
      "stateMutability": "payable",
      "type": "function",
      "payable": true
    },
    {
      "inputs": [
        {
          "internalType": "uint256",
          "name": "id",
          "type": "uint256"
        }
      ],
      "name": "check_firstBid",
      "outputs": [
        {
          "internalType": "bool",
          "name": "",
          "type": "bool"
        }
      ],
      "stateMutability": "view",
      "type": "function",
      "constant": true
    },
    {
      "inputs": [],
      "name": "get_numStudents",
      "outputs": [
        {
          "internalType": "uint256",
          "name": "",
          "type": "uint256"
        }
      ],
      "stateMutability": "view",
      "type": "function",
      "constant": true
    },
    {
      "inputs": [
        {
          "internalType": "uint256",
          "name": "id",
          "type": "uint256"
        }
      ],
      "name": "get_address",
      "outputs": [
        {
          "internalType": "address",
          "name": "",
          "type": "address"
        }
      ],
      "stateMutability": "view",
      "type": "function",
      "constant": true
    },
    {
      "inputs": [
        {
          "internalType": "uint256",
          "name": "id",
          "type": "uint256"
        }
      ],
      "name": "get_name",
      "outputs": [
        {
          "internalType": "string",
          "name": "",
          "type": "string"
        }
      ],
      "stateMutability": "view",
      "type": "function",
      "constant": true
    },
    {
      "inputs": [
        {
          "internalType": "uint256",
          "name": "id",
          "type": "uint256"
        }
      ],
      "name": "get_password",
      "outputs": [
        {
          "internalType": "string",
          "name": "",
          "type": "string"
        }
      ],
      "stateMutability": "view",
      "type": "function",
      "constant": true
    },
    {
      "inputs": [
        {
          "internalType": "uint256",
          "name": "id",
          "type": "uint256"
        }
      ],
      "name": "get_seniority",
      "outputs": [
        {
          "internalType": "uint8",
          "name": "",
          "type": "uint8"
        }
      ],
      "stateMutability": "view",
      "type": "function",
      "constant": true
    },
    {
      "inputs": [
        {
          "internalType": "uint256",
          "name": "id",
          "type": "uint256"
        }
      ],
      "name": "get_major",
      "outputs": [
        {
          "internalType": "string",
          "name": "",
          "type": "string"
        }
      ],
      "stateMutability": "view",
      "type": "function",
      "constant": true
    },
    {
      "inputs": [
        {
          "internalType": "uint256",
          "name": "id",
          "type": "uint256"
        }
      ],
      "name": "get_minor",
      "outputs": [
        {
          "internalType": "string",
          "name": "",
          "type": "string"
        }
      ],
      "stateMutability": "view",
      "type": "function",
      "constant": true
    }
  ],
  "bytecode": "0x60806040526000805534801561001457600080fd5b50611546806100246000396000f3fe6080604052600436106100c25760003560e01c80637f0f543c1161007f578063b2175e9211610059578063b2175e921461028e578063d04ae785146102cb578063d47c780b14610308578063e0ff9ab314610345576100c2565b80637f0f543c146101f857806391a1b21e14610235578063aa36716d14610272576100c2565b806306ead22e146100c75780630afad82d1461010c5780631949a58a14610137578063493f4f741461017457806350c9d7dd146101b1578063589548f5146101cd575b600080fd5b3480156100d357600080fd5b506100ee60048036038101906100e99190611127565b610382565b60405161010399989796959493929190611259565b60405180910390f35b34801561011857600080fd5b5061012161079a565b60405161012e919061136d565b60405180910390f35b34801561014357600080fd5b5061015e60048036038101906101599190611127565b6107a0565b60405161016b9190611310565b60405180910390f35b34801561018057600080fd5b5061019b60048036038101906101969190611127565b6107cd565b6040516101a8919061123e565b60405180910390f35b6101cb60048036038101906101c69190610ff9565b61080d565b005b3480156101d957600080fd5b506101e2610ac9565b6040516101ef919061136d565b60405180910390f35b34801561020457600080fd5b5061021f600480360381019061021a9190611127565b610ad2565b60405161022c919061132b565b60405180910390f35b34801561024157600080fd5b5061025c60048036038101906102579190611127565b610b8a565b6040516102699190611388565b60405180910390f35b61028c60048036038101906102879190611127565b610bb7565b005b34801561029a57600080fd5b506102b560048036038101906102b09190610fd0565b610be9565b6040516102c29190611388565b60405180910390f35b3480156102d757600080fd5b506102f260048036038101906102ed9190611127565b610c09565b6040516102ff919061132b565b60405180910390f35b34801561031457600080fd5b5061032f600480360381019061032a9190611127565b610cc1565b60405161033c919061132b565b60405180910390f35b34801561035157600080fd5b5061036c60048036038101906103679190611127565b610d79565b604051610379919061132b565b60405180910390f35b60016020528060005260406000206000915090508060000160009054906101000a900473ffffffffffffffffffffffffffffffffffffffff1690806001018054600181600116156101000203166002900480601f0160208091040260200160405190810160405280929190818152602001828054600181600116156101000203166002900480156104545780601f1061042957610100808354040283529160200191610454565b820191906000526020600020905b81548152906001019060200180831161043757829003601f168201915b505050505090806002018054600181600116156101000203166002900480601f0160208091040260200160405190810160405280929190818152602001828054600181600116156101000203166002900480156104f25780601f106104c7576101008083540402835291602001916104f2565b820191906000526020600020905b8154815290600101906020018083116104d557829003601f168201915b505050505090806003018054600181600116156101000203166002900480601f0160208091040260200160405190810160405280929190818152602001828054600181600116156101000203166002900480156105905780601f1061056557610100808354040283529160200191610590565b820191906000526020600020905b81548152906001019060200180831161057357829003601f168201915b505050505090806004018054600181600116156101000203166002900480601f01602080910402602001604051908101604052809291908181526020018280546001816001161561010002031660029004801561062e5780601f106106035761010080835404028352916020019161062e565b820191906000526020600020905b81548152906001019060200180831161061157829003601f168201915b5050505050908060050160009054906101000a900460ff1690806006018054600181600116156101000203166002900480601f0160208091040260200160405190810160405280929190818152602001828054600181600116156101000203166002900480156106df5780601f106106b4576101008083540402835291602001916106df565b820191906000526020600020905b8154815290600101906020018083116106c257829003601f168201915b505050505090806007018054600181600116156101000203166002900480601f01602080910402602001604051908101604052809291908181526020018280546001816001161561010002031660029004801561077d5780601f106107525761010080835404028352916020019161077d565b820191906000526020600020905b81548152906001019060200180831161076057829003601f168201915b5050505050908060080160009054906101000a900460ff16905089565b60005481565b60006001600083815260200190815260200160002060080160009054906101000a900460ff169050919050565b60006001600083815260200190815260200160002060000160009054906101000a900473ffffffffffffffffffffffffffffffffffffffff169050919050565b6001600260003273ffffffffffffffffffffffffffffffffffffffff1673ffffffffffffffffffffffffffffffffffffffff16815260200190815260200160002060009054906101000a900460ff1660ff1614156108a0576040517f08c379a00000000000000000000000000000000000000000000000000000000081526004016108979061134d565b60405180910390fd5b6108a8610e31565b6040518061012001604052803273ffffffffffffffffffffffffffffffffffffffff1681526020018981526020018881526020018781526020018681526020018560ff16815260200184815260200183815260200160011515815250905080600160008054815260200190815260200160002060008201518160000160006101000a81548173ffffffffffffffffffffffffffffffffffffffff021916908373ffffffffffffffffffffffffffffffffffffffff160217905550602082015181600101908051906020019061097e929190610e98565b50604082015181600201908051906020019061099b929190610e98565b5060608201518160030190805190602001906109b8929190610e98565b5060808201518160040190805190602001906109d5929190610e98565b5060a08201518160050160006101000a81548160ff021916908360ff16021790555060c0820151816006019080519060200190610a13929190610e98565b5060e0820151816007019080519060200190610a30929190610e98565b506101008201518160080160006101000a81548160ff02191690831515021790555090505060008081548092919060010191905055506001600260003273ffffffffffffffffffffffffffffffffffffffff1673ffffffffffffffffffffffffffffffffffffffff16815260200190815260200160002060006101000a81548160ff021916908360ff1602179055505050505050505050565b60008054905090565b6060600160008381526020019081526020016000206001018054600181600116156101000203166002900480601f016020809104026020016040519081016040528092919081815260200182805460018160011615610100020316600290048015610b7e5780601f10610b5357610100808354040283529160200191610b7e565b820191906000526020600020905b815481529060010190602001808311610b6157829003601f168201915b50505050509050919050565b60006001600083815260200190815260200160002060050160009054906101000a900460ff169050919050565b60006001600083815260200190815260200160002060080160006101000a81548160ff02191690831515021790555050565b60026020528060005260406000206000915054906101000a900460ff1681565b6060600160008381526020019081526020016000206003018054600181600116156101000203166002900480601f016020809104026020016040519081016040528092919081815260200182805460018160011615610100020316600290048015610cb55780601f10610c8a57610100808354040283529160200191610cb5565b820191906000526020600020905b815481529060010190602001808311610c9857829003601f168201915b50505050509050919050565b6060600160008381526020019081526020016000206006018054600181600116156101000203166002900480601f016020809104026020016040519081016040528092919081815260200182805460018160011615610100020316600290048015610d6d5780601f10610d4257610100808354040283529160200191610d6d565b820191906000526020600020905b815481529060010190602001808311610d5057829003601f168201915b50505050509050919050565b6060600160008381526020019081526020016000206007018054600181600116156101000203166002900480601f016020809104026020016040519081016040528092919081815260200182805460018160011615610100020316600290048015610e255780601f10610dfa57610100808354040283529160200191610e25565b820191906000526020600020905b815481529060010190602001808311610e0857829003601f168201915b50505050509050919050565b604051806101200160405280600073ffffffffffffffffffffffffffffffffffffffff16815260200160608152602001606081526020016060815260200160608152602001600060ff16815260200160608152602001606081526020016000151581525090565b828054600181600116156101000203166002900490600052602060002090601f016020900481019282601f10610ed957805160ff1916838001178555610f07565b82800160010185558215610f07579182015b82811115610f06578251825591602001919060010190610eeb565b5b509050610f149190610f18565b5090565b610f3a91905b80821115610f36576000816000905550600101610f1e565b5090565b90565b600081359050610f4c816114cb565b92915050565b600082601f830112610f6357600080fd5b8135610f76610f71826113d0565b6113a3565b91508082526020830160208301858383011115610f9257600080fd5b610f9d838284611478565b50505092915050565b600081359050610fb5816114e2565b92915050565b600081359050610fca816114f9565b92915050565b600060208284031215610fe257600080fd5b6000610ff084828501610f3d565b91505092915050565b600080600080600080600060e0888a03121561101457600080fd5b600088013567ffffffffffffffff81111561102e57600080fd5b61103a8a828b01610f52565b975050602088013567ffffffffffffffff81111561105757600080fd5b6110638a828b01610f52565b965050604088013567ffffffffffffffff81111561108057600080fd5b61108c8a828b01610f52565b955050606088013567ffffffffffffffff8111156110a957600080fd5b6110b58a828b01610f52565b94505060806110c68a828b01610fbb565b93505060a088013567ffffffffffffffff8111156110e357600080fd5b6110ef8a828b01610f52565b92505060c088013567ffffffffffffffff81111561110c57600080fd5b6111188a828b01610f52565b91505092959891949750929550565b60006020828403121561113957600080fd5b600061114784828501610fa6565b91505092915050565b61115981611423565b82525050565b61116881611435565b82525050565b600061117982611407565b6111838185611412565b9350611193818560208601611487565b61119c816114ba565b840191505092915050565b60006111b2826113fc565b6111bc8185611412565b93506111cc818560208601611487565b6111d5816114ba565b840191505092915050565b60006111ed601583611412565b91507f53747564656e7420616c726561647920616464656400000000000000000000006000830152602082019050919050565b61122981611461565b82525050565b6112388161146b565b82525050565b60006020820190506112536000830184611150565b92915050565b60006101208201905061126f600083018c611150565b8181036020830152611281818b6111a7565b90508181036040830152611295818a6111a7565b905081810360608301526112a981896111a7565b905081810360808301526112bd81886111a7565b90506112cc60a083018761122f565b81810360c08301526112de81866111a7565b905081810360e08301526112f281856111a7565b905061130261010083018461115f565b9a9950505050505050505050565b6000602082019050611325600083018461115f565b92915050565b60006020820190508181036000830152611345818461116e565b905092915050565b60006020820190508181036000830152611366816111e0565b9050919050565b60006020820190506113826000830184611220565b92915050565b600060208201905061139d600083018461122f565b92915050565b6000604051905081810181811067ffffffffffffffff821117156113c657600080fd5b8060405250919050565b600067ffffffffffffffff8211156113e757600080fd5b601f19601f8301169050602081019050919050565b600081519050919050565b600081519050919050565b600082825260208201905092915050565b600061142e82611441565b9050919050565b60008115159050919050565b600073ffffffffffffffffffffffffffffffffffffffff82169050919050565b6000819050919050565b600060ff82169050919050565b82818337600083830152505050565b60005b838110156114a557808201518184015260208101905061148a565b838111156114b4576000848401525b50505050565b6000601f19601f8301169050919050565b6114d481611423565b81146114df57600080fd5b50565b6114eb81611461565b81146114f657600080fd5b50565b6115028161146b565b811461150d57600080fd5b5056fea2646970667358221220f047df47b89d590cc937d9c682c5b159136269f45bd265df7098ac2e56ba57b364736f6c63430006040033",
  "source": "pragma solidity ^0.6.0;\r\npragma experimental ABIEncoderV2;\r\n\r\ncontract Students {\r\n    \r\n    enum studentState { bidding, notBidding }\r\n    \r\n    struct student {\r\n        address addr;\r\n        string name;\r\n        string username;\r\n        string password;\r\n        string email;\r\n        uint8 seniority;\r\n        string major;\r\n        string minor;\r\n        bool firstBid;\r\n    }\r\n    \r\n    uint256 public numStudents = 0;\r\n    mapping(uint256 => student) public students;\r\n    mapping(address => uint8) public createdStudents;\r\n\r\n    function addStudent(\r\n        string memory name,\r\n        string memory username,\r\n        string memory password,\r\n        string memory email,\r\n        uint8 seniority,\r\n        string memory major,\r\n        string memory minor\r\n    ) public payable {\r\n        // require student not already added\r\n        require(createdStudents[tx.origin] != 1, \"Student already added\");\r\n\r\n        // new student object\r\n        student memory newStudent = student(\r\n            tx.origin,\r\n            name,\r\n            username,\r\n            password,\r\n            email,\r\n            seniority,\r\n            major,\r\n            minor,\r\n            true\r\n        );\r\n        \r\n        students[numStudents] = newStudent;\r\n        numStudents++;\r\n        createdStudents[tx.origin] = 1;\r\n    }\r\n\r\n    /** Utility functions */\r\n    function set_firstBid(uint256 id) public payable{\r\n        students[id].firstBid = false;\r\n    }\r\n\r\n    /** Getters */\r\n    // TODO: Add some form of restriction for all calls\r\n    \r\n    function check_firstBid(uint256 id) public view returns (bool) {\r\n        return students[id].firstBid;\r\n    }\r\n    \r\n    function get_numStudents() public view returns(uint256) {\r\n        return numStudents;\r\n    }\r\n\r\n    function get_address(uint256 id) public view returns(address) {\r\n        return students[id].addr;\r\n    }\r\n\r\n    function get_name(uint256 id) public view returns(string memory) {\r\n        return students[id].name;\r\n    }\r\n\r\n    function get_password(uint256 id) public view returns(string memory) {\r\n        return students[id].password;\r\n    }\r\n\r\n    function get_seniority(uint256 id) public view returns(uint8) {\r\n        return students[id].seniority;\r\n    }\r\n\r\n    function get_major(uint256 id) public view returns(string memory) {\r\n        return students[id].major;\r\n    }\r\n\r\n    function get_minor(uint256 id) public view returns(string memory) {\r\n        return students[id].minor;\r\n    }\r\n    \r\n}\r\n",
  "sourcePath": "C:\\Users\\Hazel Tan\\Documents\\BetterModReg2\\backend\\contracts\\Students.sol",
  "compiler": {
    "name": "solc",
    "version": "0.6.4+commit.1dca32f3.Emscripten.clang"
  },
  "schemaVersion": "3.4.5",
  "updatedAt": "2022-04-11T03:59:18.534Z",
  "networkType": "ethereum",
  "devdoc": {
    "methods": {}
  },
  "userdoc": {
    "methods": {
      "check_firstBid(uint256)": {
        "notice": "Getters "
      },
      "set_firstBid(uint256)": {
        "notice": "Utility functions "
      }
    }
  }
}