{
  "contractName": "Students",
  "abi": [
    {
      "inputs": [
        {
          "internalType": "address",
          "name": "",
          "type": "address"
        }
      ],
      "name": "createdStudents",
      "outputs": [
        {
          "internalType": "uint8",
          "name": "",
          "type": "uint8"
        }
      ],
      "stateMutability": "view",
      "type": "function"
    },
    {
      "inputs": [
        {
          "internalType": "address",
          "name": "",
          "type": "address"
        }
      ],
      "name": "linearIncrement",
      "outputs": [
        {
          "internalType": "uint256",
          "name": "",
          "type": "uint256"
        }
      ],
      "stateMutability": "view",
      "type": "function"
    },
    {
      "inputs": [],
      "name": "numStudents",
      "outputs": [
        {
          "internalType": "uint256",
          "name": "",
          "type": "uint256"
        }
      ],
      "stateMutability": "view",
      "type": "function"
    },
    {
      "inputs": [
        {
          "internalType": "uint256",
          "name": "",
          "type": "uint256"
        }
      ],
      "name": "students",
      "outputs": [
        {
          "internalType": "address",
          "name": "addr",
          "type": "address"
        },
        {
          "internalType": "string",
          "name": "name",
          "type": "string"
        },
        {
          "internalType": "string",
          "name": "username",
          "type": "string"
        },
        {
          "internalType": "string",
          "name": "password",
          "type": "string"
        },
        {
          "internalType": "string",
          "name": "email",
          "type": "string"
        },
        {
          "internalType": "uint8",
          "name": "seniority",
          "type": "uint8"
        },
        {
          "internalType": "string",
          "name": "major",
          "type": "string"
        },
        {
          "internalType": "string",
          "name": "minor",
          "type": "string"
        },
        {
          "internalType": "bool",
          "name": "firstBid",
          "type": "bool"
        }
      ],
      "stateMutability": "view",
      "type": "function"
    },
    {
      "inputs": [
        {
          "internalType": "string",
          "name": "name",
          "type": "string"
        },
        {
          "internalType": "string",
          "name": "username",
          "type": "string"
        },
        {
          "internalType": "string",
          "name": "password",
          "type": "string"
        },
        {
          "internalType": "string",
          "name": "email",
          "type": "string"
        },
        {
          "internalType": "uint8",
          "name": "seniority",
          "type": "uint8"
        },
        {
          "internalType": "string",
          "name": "major",
          "type": "string"
        },
        {
          "internalType": "string",
          "name": "minor",
          "type": "string"
        }
      ],
      "name": "addStudent",
      "outputs": [],
      "stateMutability": "payable",
      "type": "function"
    },
    {
      "inputs": [
        {
          "internalType": "uint256",
          "name": "id",
          "type": "uint256"
        }
      ],
      "name": "set_firstBid",
      "outputs": [],
      "stateMutability": "payable",
      "type": "function"
    },
    {
      "inputs": [
        {
          "internalType": "address",
          "name": "sender_address",
          "type": "address"
        }
      ],
      "name": "test_increment",
      "outputs": [],
      "stateMutability": "payable",
      "type": "function"
    },
    {
      "inputs": [
        {
          "internalType": "address",
          "name": "sender_address",
          "type": "address"
        }
      ],
      "name": "check_increment",
      "outputs": [
        {
          "internalType": "uint256",
          "name": "",
          "type": "uint256"
        }
      ],
      "stateMutability": "view",
      "type": "function"
    },
    {
      "inputs": [
        {
          "internalType": "uint256",
          "name": "id",
          "type": "uint256"
        }
      ],
      "name": "check_firstBid",
      "outputs": [
        {
          "internalType": "bool",
          "name": "",
          "type": "bool"
        }
      ],
      "stateMutability": "view",
      "type": "function"
    },
    {
      "inputs": [],
      "name": "get_numStudents",
      "outputs": [
        {
          "internalType": "uint256",
          "name": "",
          "type": "uint256"
        }
      ],
      "stateMutability": "view",
      "type": "function"
    },
    {
      "inputs": [
        {
          "internalType": "uint256",
          "name": "id",
          "type": "uint256"
        }
      ],
      "name": "get_address",
      "outputs": [
        {
          "internalType": "address",
          "name": "",
          "type": "address"
        }
      ],
      "stateMutability": "view",
      "type": "function"
    },
    {
      "inputs": [
        {
          "internalType": "uint256",
          "name": "id",
          "type": "uint256"
        }
      ],
      "name": "get_name",
      "outputs": [
        {
          "internalType": "string",
          "name": "",
          "type": "string"
        }
      ],
      "stateMutability": "view",
      "type": "function"
    },
    {
      "inputs": [
        {
          "internalType": "uint256",
          "name": "id",
          "type": "uint256"
        }
      ],
      "name": "get_password",
      "outputs": [
        {
          "internalType": "string",
          "name": "",
          "type": "string"
        }
      ],
      "stateMutability": "view",
      "type": "function"
    },
    {
      "inputs": [
        {
          "internalType": "uint256",
          "name": "id",
          "type": "uint256"
        }
      ],
      "name": "get_seniority",
      "outputs": [
        {
          "internalType": "uint8",
          "name": "",
          "type": "uint8"
        }
      ],
      "stateMutability": "view",
      "type": "function"
    },
    {
      "inputs": [
        {
          "internalType": "uint256",
          "name": "id",
          "type": "uint256"
        }
      ],
      "name": "get_major",
      "outputs": [
        {
          "internalType": "string",
          "name": "",
          "type": "string"
        }
      ],
      "stateMutability": "view",
      "type": "function"
    },
    {
      "inputs": [
        {
          "internalType": "uint256",
          "name": "id",
          "type": "uint256"
        }
      ],
      "name": "get_minor",
      "outputs": [
        {
          "internalType": "string",
          "name": "",
          "type": "string"
        }
      ],
      "stateMutability": "view",
      "type": "function"
    }
  ],
  "bytecode": "0x60806040526000805534801561001457600080fd5b506116bf806100246000396000f3fe6080604052600436106100f35760003560e01c80637f0f543c1161008a578063c37282b211610059578063c37282b214610355578063d04ae78514610392578063d47c780b146103cf578063e0ff9ab31461040c576100f3565b80637f0f543c1461028257806391a1b21e146102bf578063aa36716d146102fc578063b2175e9214610318576100f3565b80631949a58a116100c65780631949a58a146101c1578063493f4f74146101fe57806350c9d7dd1461023b578063589548f514610257576100f3565b806301d2dd58146100f857806306ead22e146101145780630afad82d14610159578063187f9ab714610184575b600080fd5b610112600480360381019061010d9190611149565b610449565b005b34801561012057600080fd5b5061013b600480360381019061013691906112a0565b61049a565b604051610150999897969594939291906113d2565b60405180910390f35b34801561016557600080fd5b5061016e6108b2565b60405161017b91906114e6565b60405180910390f35b34801561019057600080fd5b506101ab60048036038101906101a69190611149565b6108b8565b6040516101b891906114e6565b60405180910390f35b3480156101cd57600080fd5b506101e860048036038101906101e391906112a0565b6108d0565b6040516101f59190611489565b60405180910390f35b34801561020a57600080fd5b50610225600480360381019061022091906112a0565b6108fd565b60405161023291906113b7565b60405180910390f35b61025560048036038101906102509190611172565b61093d565b005b34801561026357600080fd5b5061026c610bf9565b60405161027991906114e6565b60405180910390f35b34801561028e57600080fd5b506102a960048036038101906102a491906112a0565b610c02565b6040516102b691906114a4565b60405180910390f35b3480156102cb57600080fd5b506102e660048036038101906102e191906112a0565b610cba565b6040516102f39190611501565b60405180910390f35b610316600480360381019061031191906112a0565b610ce7565b005b34801561032457600080fd5b5061033f600480360381019061033a9190611149565b610d19565b60405161034c9190611501565b60405180910390f35b34801561036157600080fd5b5061037c60048036038101906103779190611149565b610d39565b60405161038991906114e6565b60405180910390f35b34801561039e57600080fd5b506103b960048036038101906103b491906112a0565b610d82565b6040516103c691906114a4565b60405180910390f35b3480156103db57600080fd5b506103f660048036038101906103f191906112a0565b610e3a565b60405161040391906114a4565b60405180910390f35b34801561041857600080fd5b50610433600480360381019061042e91906112a0565b610ef2565b60405161044091906114a4565b60405180910390f35b6001600360008373ffffffffffffffffffffffffffffffffffffffff1673ffffffffffffffffffffffffffffffffffffffff1681526020019081526020016000206000828254019250508190555050565b60016020528060005260406000206000915090508060000160009054906101000a900473ffffffffffffffffffffffffffffffffffffffff1690806001018054600181600116156101000203166002900480601f01602080910402602001604051908101604052809291908181526020018280546001816001161561010002031660029004801561056c5780601f106105415761010080835404028352916020019161056c565b820191906000526020600020905b81548152906001019060200180831161054f57829003601f168201915b505050505090806002018054600181600116156101000203166002900480601f01602080910402602001604051908101604052809291908181526020018280546001816001161561010002031660029004801561060a5780601f106105df5761010080835404028352916020019161060a565b820191906000526020600020905b8154815290600101906020018083116105ed57829003601f168201915b505050505090806003018054600181600116156101000203166002900480601f0160208091040260200160405190810160405280929190818152602001828054600181600116156101000203166002900480156106a85780601f1061067d576101008083540402835291602001916106a8565b820191906000526020600020905b81548152906001019060200180831161068b57829003601f168201915b505050505090806004018054600181600116156101000203166002900480601f0160208091040260200160405190810160405280929190818152602001828054600181600116156101000203166002900480156107465780601f1061071b57610100808354040283529160200191610746565b820191906000526020600020905b81548152906001019060200180831161072957829003601f168201915b5050505050908060050160009054906101000a900460ff1690806006018054600181600116156101000203166002900480601f0160208091040260200160405190810160405280929190818152602001828054600181600116156101000203166002900480156107f75780601f106107cc576101008083540402835291602001916107f7565b820191906000526020600020905b8154815290600101906020018083116107da57829003601f168201915b505050505090806007018054600181600116156101000203166002900480601f0160208091040260200160405190810160405280929190818152602001828054600181600116156101000203166002900480156108955780601f1061086a57610100808354040283529160200191610895565b820191906000526020600020905b81548152906001019060200180831161087857829003601f168201915b5050505050908060080160009054906101000a900460ff16905089565b60005481565b60036020528060005260406000206000915090505481565b60006001600083815260200190815260200160002060080160009054906101000a900460ff169050919050565b60006001600083815260200190815260200160002060000160009054906101000a900473ffffffffffffffffffffffffffffffffffffffff169050919050565b6001600260003273ffffffffffffffffffffffffffffffffffffffff1673ffffffffffffffffffffffffffffffffffffffff16815260200190815260200160002060009054906101000a900460ff1660ff1614156109d0576040517f08c379a00000000000000000000000000000000000000000000000000000000081526004016109c7906114c6565b60405180910390fd5b6109d8610faa565b6040518061012001604052803273ffffffffffffffffffffffffffffffffffffffff1681526020018981526020018881526020018781526020018681526020018560ff16815260200184815260200183815260200160011515815250905080600160008054815260200190815260200160002060008201518160000160006101000a81548173ffffffffffffffffffffffffffffffffffffffff021916908373ffffffffffffffffffffffffffffffffffffffff1602179055506020820151816001019080519060200190610aae929190611011565b506040820151816002019080519060200190610acb929190611011565b506060820151816003019080519060200190610ae8929190611011565b506080820151816004019080519060200190610b05929190611011565b5060a08201518160050160006101000a81548160ff021916908360ff16021790555060c0820151816006019080519060200190610b43929190611011565b5060e0820151816007019080519060200190610b60929190611011565b506101008201518160080160006101000a81548160ff02191690831515021790555090505060008081548092919060010191905055506001600260003273ffffffffffffffffffffffffffffffffffffffff1673ffffffffffffffffffffffffffffffffffffffff16815260200190815260200160002060006101000a81548160ff021916908360ff1602179055505050505050505050565b60008054905090565b6060600160008381526020019081526020016000206001018054600181600116156101000203166002900480601f016020809104026020016040519081016040528092919081815260200182805460018160011615610100020316600290048015610cae5780601f10610c8357610100808354040283529160200191610cae565b820191906000526020600020905b815481529060010190602001808311610c9157829003601f168201915b50505050509050919050565b60006001600083815260200190815260200160002060050160009054906101000a900460ff169050919050565b60006001600083815260200190815260200160002060080160006101000a81548160ff02191690831515021790555050565b60026020528060005260406000206000915054906101000a900460ff1681565b6000600360008373ffffffffffffffffffffffffffffffffffffffff1673ffffffffffffffffffffffffffffffffffffffff168152602001908152602001600020549050919050565b6060600160008381526020019081526020016000206003018054600181600116156101000203166002900480601f016020809104026020016040519081016040528092919081815260200182805460018160011615610100020316600290048015610e2e5780601f10610e0357610100808354040283529160200191610e2e565b820191906000526020600020905b815481529060010190602001808311610e1157829003601f168201915b50505050509050919050565b6060600160008381526020019081526020016000206006018054600181600116156101000203166002900480601f016020809104026020016040519081016040528092919081815260200182805460018160011615610100020316600290048015610ee65780601f10610ebb57610100808354040283529160200191610ee6565b820191906000526020600020905b815481529060010190602001808311610ec957829003601f168201915b50505050509050919050565b6060600160008381526020019081526020016000206007018054600181600116156101000203166002900480601f016020809104026020016040519081016040528092919081815260200182805460018160011615610100020316600290048015610f9e5780601f10610f7357610100808354040283529160200191610f9e565b820191906000526020600020905b815481529060010190602001808311610f8157829003601f168201915b50505050509050919050565b604051806101200160405280600073ffffffffffffffffffffffffffffffffffffffff16815260200160608152602001606081526020016060815260200160608152602001600060ff16815260200160608152602001606081526020016000151581525090565b828054600181600116156101000203166002900490600052602060002090601f016020900481019282601f1061105257805160ff1916838001178555611080565b82800160010185558215611080579182015b8281111561107f578251825591602001919060010190611064565b5b50905061108d9190611091565b5090565b6110b391905b808211156110af576000816000905550600101611097565b5090565b90565b6000813590506110c581611644565b92915050565b600082601f8301126110dc57600080fd5b81356110ef6110ea82611549565b61151c565b9150808252602083016020830185838301111561110b57600080fd5b6111168382846115f1565b50505092915050565b60008135905061112e8161165b565b92915050565b60008135905061114381611672565b92915050565b60006020828403121561115b57600080fd5b6000611169848285016110b6565b91505092915050565b600080600080600080600060e0888a03121561118d57600080fd5b600088013567ffffffffffffffff8111156111a757600080fd5b6111b38a828b016110cb565b975050602088013567ffffffffffffffff8111156111d057600080fd5b6111dc8a828b016110cb565b965050604088013567ffffffffffffffff8111156111f957600080fd5b6112058a828b016110cb565b955050606088013567ffffffffffffffff81111561122257600080fd5b61122e8a828b016110cb565b945050608061123f8a828b01611134565b93505060a088013567ffffffffffffffff81111561125c57600080fd5b6112688a828b016110cb565b92505060c088013567ffffffffffffffff81111561128557600080fd5b6112918a828b016110cb565b91505092959891949750929550565b6000602082840312156112b257600080fd5b60006112c08482850161111f565b91505092915050565b6112d28161159c565b82525050565b6112e1816115ae565b82525050565b60006112f282611580565b6112fc818561158b565b935061130c818560208601611600565b61131581611633565b840191505092915050565b600061132b82611575565b611335818561158b565b9350611345818560208601611600565b61134e81611633565b840191505092915050565b600061136660158361158b565b91507f53747564656e7420616c726561647920616464656400000000000000000000006000830152602082019050919050565b6113a2816115da565b82525050565b6113b1816115e4565b82525050565b60006020820190506113cc60008301846112c9565b92915050565b6000610120820190506113e8600083018c6112c9565b81810360208301526113fa818b611320565b9050818103604083015261140e818a611320565b905081810360608301526114228189611320565b905081810360808301526114368188611320565b905061144560a08301876113a8565b81810360c08301526114578186611320565b905081810360e083015261146b8185611320565b905061147b6101008301846112d8565b9a9950505050505050505050565b600060208201905061149e60008301846112d8565b92915050565b600060208201905081810360008301526114be81846112e7565b905092915050565b600060208201905081810360008301526114df81611359565b9050919050565b60006020820190506114fb6000830184611399565b92915050565b600060208201905061151660008301846113a8565b92915050565b6000604051905081810181811067ffffffffffffffff8211171561153f57600080fd5b8060405250919050565b600067ffffffffffffffff82111561156057600080fd5b601f19601f8301169050602081019050919050565b600081519050919050565b600081519050919050565b600082825260208201905092915050565b60006115a7826115ba565b9050919050565b60008115159050919050565b600073ffffffffffffffffffffffffffffffffffffffff82169050919050565b6000819050919050565b600060ff82169050919050565b82818337600083830152505050565b60005b8381101561161e578082015181840152602081019050611603565b8381111561162d576000848401525b50505050565b6000601f19601f8301169050919050565b61164d8161159c565b811461165857600080fd5b50565b611664816115da565b811461166f57600080fd5b50565b61167b816115e4565b811461168657600080fd5b5056fea2646970667358221220356f07810336b1cf49aadbaf9e7f325c0502bc3ed1966564d5d2fba429fd99ac64736f6c63430006040033",
  "source": "pragma solidity ^0.6.0;\r\npragma experimental ABIEncoderV2;\r\n\r\ncontract Students {\r\n    \r\n    enum studentState { bidding, notBidding }\r\n    \r\n    struct student {\r\n        address addr;\r\n        string name;\r\n        string username;\r\n        string password;\r\n        string email;\r\n        uint8 seniority;\r\n        string major;\r\n        string minor;\r\n        bool firstBid;\r\n    }\r\n    \r\n    uint256 public numStudents = 0;\r\n    mapping(uint256 => student) public students;\r\n    mapping(address => uint8) public createdStudents;\r\n    mapping(address => uint256) public linearIncrement; \r\n\r\n    function addStudent(\r\n        string memory name,\r\n        string memory username,\r\n        string memory password,\r\n        string memory email,\r\n        uint8 seniority,\r\n        string memory major,\r\n        string memory minor\r\n    ) public payable {\r\n        // require student not already added\r\n        require(createdStudents[tx.origin] != 1, \"Student already added\");\r\n\r\n        // new student object\r\n        student memory newStudent = student(\r\n            tx.origin,\r\n            name,\r\n            username,\r\n            password,\r\n            email,\r\n            seniority,\r\n            major,\r\n            minor,\r\n            true\r\n        );\r\n        \r\n        students[numStudents] = newStudent;\r\n        numStudents++;\r\n        createdStudents[tx.origin] = 1;\r\n    }\r\n\r\n    /** Utility functions */\r\n    function set_firstBid(uint256 id) public payable{\r\n        students[id].firstBid = false;\r\n    }\r\n\r\n    function test_increment(address sender_address) public payable {\r\n        linearIncrement[sender_address] += 1;\r\n    }\r\n\r\n    function check_increment(address sender_address) public view returns (uint256) {\r\n        return linearIncrement[sender_address];\r\n    }\r\n\r\n    /** Getters */\r\n    // TODO: Add some form of restriction for all calls\r\n    \r\n    function check_firstBid(uint256 id) public view returns (bool) {\r\n        return students[id].firstBid;\r\n    }\r\n    \r\n    function get_numStudents() public view returns(uint256) {\r\n        return numStudents;\r\n    }\r\n\r\n    function get_address(uint256 id) public view returns(address) {\r\n        return students[id].addr;\r\n    }\r\n\r\n    function get_name(uint256 id) public view returns(string memory) {\r\n        return students[id].name;\r\n    }\r\n\r\n    function get_password(uint256 id) public view returns(string memory) {\r\n        return students[id].password;\r\n    }\r\n\r\n    function get_seniority(uint256 id) public view returns(uint8) {\r\n        return students[id].seniority;\r\n    }\r\n\r\n    function get_major(uint256 id) public view returns(string memory) {\r\n        return students[id].major;\r\n    }\r\n\r\n    function get_minor(uint256 id) public view returns(string memory) {\r\n        return students[id].minor;\r\n    }\r\n    \r\n}\r\n",
  "sourcePath": "C:\\Users\\kenne\\Desktop\\BetterModReg\\backend\\contracts\\Students.sol",
  "compiler": {
    "name": "solc",
    "version": "0.6.4+commit.1dca32f3.Emscripten.clang"
  },
  "schemaVersion": "3.4.4",
  "updatedAt": "2022-04-13T10:10:38.718Z",
  "devdoc": {
    "methods": {}
  },
  "userdoc": {
    "methods": {
      "check_firstBid(uint256)": {
        "notice": "Getters "
      },
      "set_firstBid(uint256)": {
        "notice": "Utility functions "
      }
    }
  }
}